{
  "contractName": "DelegateProxy",
  "abi": [
    {
      "constant": true,
      "inputs": [],
      "name": "owner",
      "outputs": [
        {
          "name": "",
          "type": "address"
        }
      ],
      "payable": false,
      "stateMutability": "view",
      "type": "function"
    },
    {
      "constant": false,
      "inputs": [
        {
          "name": "from",
          "type": "address"
        },
        {
          "name": "value",
          "type": "uint256"
        },
        {
          "name": "token",
          "type": "address"
        },
        {
          "name": "extraData",
          "type": "bytes"
        }
      ],
      "name": "receiveApproval",
      "outputs": [],
      "payable": false,
      "stateMutability": "nonpayable",
      "type": "function"
    },
    {
      "constant": false,
      "inputs": [
        {
          "name": "newOwner",
          "type": "address"
        }
      ],
      "name": "transferOwnership",
      "outputs": [],
      "payable": false,
      "stateMutability": "nonpayable",
      "type": "function"
    },
    {
      "payable": true,
      "stateMutability": "payable",
      "type": "fallback"
    },
    {
      "anonymous": false,
      "inputs": [
        {
          "indexed": true,
          "name": "previousOwner",
          "type": "address"
        },
        {
          "indexed": true,
          "name": "newOwner",
          "type": "address"
        }
      ],
      "name": "OwnershipTransferred",
      "type": "event"
    },
    {
      "anonymous": false,
      "inputs": [
        {
          "indexed": true,
          "name": "sender",
          "type": "address"
        },
        {
          "indexed": false,
          "name": "amount",
          "type": "uint256"
        }
      ],
      "name": "ReceivedEther",
      "type": "event"
    },
    {
      "anonymous": false,
      "inputs": [
        {
          "indexed": true,
          "name": "from",
          "type": "address"
        },
        {
          "indexed": false,
          "name": "value",
          "type": "uint256"
        },
        {
          "indexed": true,
          "name": "token",
          "type": "address"
        },
        {
          "indexed": false,
          "name": "extraData",
          "type": "bytes"
        }
      ],
      "name": "ReceivedTokens",
      "type": "event"
    },
    {
      "constant": false,
      "inputs": [
        {
          "name": "dest",
          "type": "address"
        },
        {
          "name": "calldata",
          "type": "bytes"
        }
      ],
      "name": "delegateProxy",
      "outputs": [
        {
          "name": "result",
          "type": "bool"
        }
      ],
      "payable": false,
      "stateMutability": "nonpayable",
      "type": "function"
    },
    {
      "constant": false,
      "inputs": [
        {
          "name": "dest",
          "type": "address"
        },
        {
          "name": "calldata",
          "type": "bytes"
        }
      ],
      "name": "delegateProxyAssert",
      "outputs": [],
      "payable": false,
      "stateMutability": "nonpayable",
      "type": "function"
    }
  ],
  "bytecode": "0x608060405260008054600160a060020a033316600160a060020a031990911617905561053d806100306000396000f30060806040526004361061006c5763ffffffff7c01000000000000000000000000000000000000000000000000000000006000350416638da5cb5b81146100ad5780638f4ffcb1146100de578063a018f2b214610150578063f2fde38b146101b7578063fc74dadd146101d8575b604080513481529051600160a060020a033316917fa419615bc8fda4c87663805ee2a3597a6d71c1d476911d9892f340d965bc7bf1919081900360200190a2005b3480156100b957600080fd5b506100c2610253565b60408051600160a060020a039092168252519081900360200190f35b3480156100ea57600080fd5b50604080516020601f60643560048181013592830184900484028501840190955281845261014e94600160a060020a038135811695602480359660443590931695369560849492019181908401838280828437509497506102629650505050505050565b005b34801561015c57600080fd5b5060408051602060046024803582810135601f810185900485028601850190965285855261014e958335600160a060020a03169536956044949193909101919081908401838280828437509497506103c99650505050505050565b3480156101c357600080fd5b5061014e600160a060020a03600435166103e2565b3480156101e457600080fd5b5060408051602060046024803582810135601f810185900485028601850190965285855261023f958335600160a060020a031695369560449491939091019190819084018382808284375094975061047a9650505050505050565b604080519115158252519081900360200190f35b600054600160a060020a031681565b604080517f23b872dd000000000000000000000000000000000000000000000000000000008152600160a060020a038681166004830152308116602483015260448201869052915184928316916323b872dd9160648083019260209291908290030181600087803b1580156102d657600080fd5b505af11580156102ea573d6000803e3d6000fd5b505050506040513d602081101561030057600080fd5b5051151561030d57600080fd5b82600160a060020a031685600160a060020a03167fd65b48fd35864b3528d38e44760be5553248f89bf3ff6b06cca57817cc2650bf86856040518083815260200180602001828103825283818151815260200191508051906020019080838360005b8381101561038757818101518382015260200161036f565b50505050905090810190601f1680156103b45780820380516001836020036101000a031916815260200191505b50935050505060405180910390a35050505050565b6103d3828261047a565b15156103de57600080fd5b5050565b60005433600160a060020a039081169116146103fd57600080fd5b600160a060020a038116151561041257600080fd5b60008054604051600160a060020a03808516939216917f8be0079c531659141344cd1fd0a4f28419497f9722a3daafe3b4186f6b6457e091a36000805473ffffffffffffffffffffffffffffffffffffffff1916600160a060020a0392909216919091179055565b6000805433600160a060020a0390811691161461049657600080fd5b82600160a060020a03168260405180828051906020019080838360005b838110156104cb5781810151838201526020016104b3565b50505050905090810190601f1680156104f85780820380516001836020036101000a031916815260200191505b50915050600060405180830381855af4959450505050505600a165627a7a72305820d78dff32a3110fa0894716c39c655f74856c9cdddc850f1047825160cb73beef0029",
  "source": "/*\n\n  DELEGATECALL proxy contract.\n  Primarily intended to enable easy atomic composition of future transactions (unknown at the time of proxy creation).\n  Example: atomically deploying a new contract and changing ENS name resolution to point to it.\n  Holds no state and does not capture call results.\n\n*/\n\npragma solidity 0.4.23;\n\nimport \"openzeppelin-solidity/contracts/ownership/Ownable.sol\";\n\nimport \"../common/TokenRecipient.sol\";\n\n/**\n * @title DelegateProxy\n * @author Project Wyvern Developers\n */\ncontract DelegateProxy is TokenRecipient, Ownable {\n\n    /**\n     * Execute a DELEGATECALL from the proxy contract\n     *\n     * @dev Owner only\n     * @param dest Address to which the call will be sent\n     * @param calldata Calldata to send\n     * @return Result of the delegatecall (success or failure)\n     */\n    function delegateProxy(address dest, bytes calldata)\n        public\n        onlyOwner\n        returns (bool result)\n    {\n        return dest.delegatecall(calldata);\n    }\n\n    /**\n     * Execute a DELEGATECALL and assert success\n     *\n     * @dev Same functionality as `delegateProxy`, just asserts the return value\n     * @param dest Address to which the call will be sent\n     * @param calldata Calldata to send\n     */\n    function delegateProxyAssert(address dest, bytes calldata)\n        public\n    {\n        require(delegateProxy(dest, calldata));\n    }\n\n}\n",
  "sourcePath": "/Users/keyang/Workspace/private-chain/truffle-learn/wyvern-ethereum-demo/contracts/dao/DelegateProxy.sol",
  "compiler": {
    "name": "solc",
    "version": "0.4.23+commit.124ca40d.Emscripten.clang"
  },
  "schemaVersion": "3.4.4",
  "updatedAt": "2022-05-26T02:18:50.408Z",
  "devdoc": {
    "author": "Project Wyvern Developers",
    "methods": {
      "delegateProxy(address,bytes)": {
        "details": "Owner only",
        "params": {
          "calldata": "Calldata to send",
          "dest": "Address to which the call will be sent"
        },
        "return": "Result of the delegatecall (success or failure)"
      },
      "delegateProxyAssert(address,bytes)": {
        "details": "Same functionality as `delegateProxy`, just asserts the return value",
        "params": {
          "calldata": "Calldata to send",
          "dest": "Address to which the call will be sent"
        }
      },
      "receiveApproval(address,uint256,address,bytes)": {
        "details": "Receive tokens and generate a log event",
        "params": {
          "extraData": "Additional data to log",
          "from": "Address from which to transfer tokens",
          "token": "Address of token",
          "value": "Amount of tokens to transfer"
        }
      },
      "transferOwnership(address)": {
        "details": "Allows the current owner to transfer control of the contract to a newOwner.",
        "params": {
          "newOwner": "The address to transfer ownership to."
        }
      }
    },
    "title": "DelegateProxy"
  },
  "userdoc": {
    "methods": {
      "delegateProxy(address,bytes)": {
        "notice": "Execute a DELEGATECALL from the proxy contract"
      },
      "delegateProxyAssert(address,bytes)": {
        "notice": "Execute a DELEGATECALL and assert success"
      }
    }
  }
}