{
  "contractName": "Exchange",
  "abi": [
    {
      "constant": true,
      "inputs": [],
      "name": "tokenTransferProxy",
      "outputs": [
        {
          "name": "",
          "type": "address"
        }
      ],
      "payable": false,
      "stateMutability": "view",
      "type": "function"
    },
    {
      "constant": true,
      "inputs": [
        {
          "name": "target",
          "type": "address"
        },
        {
          "name": "calldata",
          "type": "bytes"
        },
        {
          "name": "extradata",
          "type": "bytes"
        }
      ],
      "name": "staticCall",
      "outputs": [
        {
          "name": "result",
          "type": "bool"
        }
      ],
      "payable": false,
      "stateMutability": "view",
      "type": "function"
    },
    {
      "constant": false,
      "inputs": [
        {
          "name": "newMinimumMakerProtocolFee",
          "type": "uint256"
        }
      ],
      "name": "changeMinimumMakerProtocolFee",
      "outputs": [],
      "payable": false,
      "stateMutability": "nonpayable",
      "type": "function"
    },
    {
      "constant": false,
      "inputs": [
        {
          "name": "newMinimumTakerProtocolFee",
          "type": "uint256"
        }
      ],
      "name": "changeMinimumTakerProtocolFee",
      "outputs": [],
      "payable": false,
      "stateMutability": "nonpayable",
      "type": "function"
    },
    {
      "constant": true,
      "inputs": [],
      "name": "minimumTakerProtocolFee",
      "outputs": [
        {
          "name": "",
          "type": "uint256"
        }
      ],
      "payable": false,
      "stateMutability": "view",
      "type": "function"
    },
    {
      "constant": false,
      "inputs": [
        {
          "name": "newProtocolFeeRecipient",
          "type": "address"
        }
      ],
      "name": "changeProtocolFeeRecipient",
      "outputs": [],
      "payable": false,
      "stateMutability": "nonpayable",
      "type": "function"
    },
    {
      "constant": true,
      "inputs": [],
      "name": "protocolFeeRecipient",
      "outputs": [
        {
          "name": "",
          "type": "address"
        }
      ],
      "payable": false,
      "stateMutability": "view",
      "type": "function"
    },
    {
      "constant": true,
      "inputs": [],
      "name": "registry",
      "outputs": [
        {
          "name": "",
          "type": "address"
        }
      ],
      "payable": false,
      "stateMutability": "view",
      "type": "function"
    },
    {
      "constant": true,
      "inputs": [],
      "name": "minimumMakerProtocolFee",
      "outputs": [
        {
          "name": "",
          "type": "uint256"
        }
      ],
      "payable": false,
      "stateMutability": "view",
      "type": "function"
    },
    {
      "constant": true,
      "inputs": [
        {
          "name": "",
          "type": "bytes32"
        }
      ],
      "name": "cancelledOrFinalized",
      "outputs": [
        {
          "name": "",
          "type": "bool"
        }
      ],
      "payable": false,
      "stateMutability": "view",
      "type": "function"
    },
    {
      "constant": true,
      "inputs": [],
      "name": "owner",
      "outputs": [
        {
          "name": "",
          "type": "address"
        }
      ],
      "payable": false,
      "stateMutability": "view",
      "type": "function"
    },
    {
      "constant": true,
      "inputs": [],
      "name": "exchangeToken",
      "outputs": [
        {
          "name": "",
          "type": "address"
        }
      ],
      "payable": false,
      "stateMutability": "view",
      "type": "function"
    },
    {
      "constant": true,
      "inputs": [],
      "name": "INVERSE_BASIS_POINT",
      "outputs": [
        {
          "name": "",
          "type": "uint256"
        }
      ],
      "payable": false,
      "stateMutability": "view",
      "type": "function"
    },
    {
      "constant": true,
      "inputs": [
        {
          "name": "",
          "type": "bytes32"
        }
      ],
      "name": "approvedOrders",
      "outputs": [
        {
          "name": "",
          "type": "bool"
        }
      ],
      "payable": false,
      "stateMutability": "view",
      "type": "function"
    },
    {
      "constant": false,
      "inputs": [
        {
          "name": "newOwner",
          "type": "address"
        }
      ],
      "name": "transferOwnership",
      "outputs": [],
      "payable": false,
      "stateMutability": "nonpayable",
      "type": "function"
    },
    {
      "anonymous": false,
      "inputs": [
        {
          "indexed": true,
          "name": "hash",
          "type": "bytes32"
        },
        {
          "indexed": false,
          "name": "exchange",
          "type": "address"
        },
        {
          "indexed": true,
          "name": "maker",
          "type": "address"
        },
        {
          "indexed": false,
          "name": "taker",
          "type": "address"
        },
        {
          "indexed": false,
          "name": "makerRelayerFee",
          "type": "uint256"
        },
        {
          "indexed": false,
          "name": "takerRelayerFee",
          "type": "uint256"
        },
        {
          "indexed": false,
          "name": "makerProtocolFee",
          "type": "uint256"
        },
        {
          "indexed": false,
          "name": "takerProtocolFee",
          "type": "uint256"
        },
        {
          "indexed": true,
          "name": "feeRecipient",
          "type": "address"
        },
        {
          "indexed": false,
          "name": "feeMethod",
          "type": "uint8"
        },
        {
          "indexed": false,
          "name": "side",
          "type": "uint8"
        },
        {
          "indexed": false,
          "name": "saleKind",
          "type": "uint8"
        },
        {
          "indexed": false,
          "name": "target",
          "type": "address"
        }
      ],
      "name": "OrderApprovedPartOne",
      "type": "event"
    },
    {
      "anonymous": false,
      "inputs": [
        {
          "indexed": true,
          "name": "hash",
          "type": "bytes32"
        },
        {
          "indexed": false,
          "name": "howToCall",
          "type": "uint8"
        },
        {
          "indexed": false,
          "name": "calldata",
          "type": "bytes"
        },
        {
          "indexed": false,
          "name": "replacementPattern",
          "type": "bytes"
        },
        {
          "indexed": false,
          "name": "staticTarget",
          "type": "address"
        },
        {
          "indexed": false,
          "name": "staticExtradata",
          "type": "bytes"
        },
        {
          "indexed": false,
          "name": "paymentToken",
          "type": "address"
        },
        {
          "indexed": false,
          "name": "basePrice",
          "type": "uint256"
        },
        {
          "indexed": false,
          "name": "extra",
          "type": "uint256"
        },
        {
          "indexed": false,
          "name": "listingTime",
          "type": "uint256"
        },
        {
          "indexed": false,
          "name": "expirationTime",
          "type": "uint256"
        },
        {
          "indexed": false,
          "name": "salt",
          "type": "uint256"
        },
        {
          "indexed": false,
          "name": "orderbookInclusionDesired",
          "type": "bool"
        }
      ],
      "name": "OrderApprovedPartTwo",
      "type": "event"
    },
    {
      "anonymous": false,
      "inputs": [
        {
          "indexed": true,
          "name": "hash",
          "type": "bytes32"
        }
      ],
      "name": "OrderCancelled",
      "type": "event"
    },
    {
      "anonymous": false,
      "inputs": [
        {
          "indexed": false,
          "name": "buyHash",
          "type": "bytes32"
        },
        {
          "indexed": false,
          "name": "sellHash",
          "type": "bytes32"
        },
        {
          "indexed": true,
          "name": "maker",
          "type": "address"
        },
        {
          "indexed": true,
          "name": "taker",
          "type": "address"
        },
        {
          "indexed": false,
          "name": "price",
          "type": "uint256"
        },
        {
          "indexed": true,
          "name": "metadata",
          "type": "bytes32"
        }
      ],
      "name": "OrdersMatched",
      "type": "event"
    },
    {
      "anonymous": false,
      "inputs": [
        {
          "indexed": true,
          "name": "previousOwner",
          "type": "address"
        },
        {
          "indexed": true,
          "name": "newOwner",
          "type": "address"
        }
      ],
      "name": "OwnershipTransferred",
      "type": "event"
    },
    {
      "constant": true,
      "inputs": [
        {
          "name": "array",
          "type": "bytes"
        },
        {
          "name": "desired",
          "type": "bytes"
        },
        {
          "name": "mask",
          "type": "bytes"
        }
      ],
      "name": "guardedArrayReplace",
      "outputs": [
        {
          "name": "",
          "type": "bytes"
        }
      ],
      "payable": false,
      "stateMutability": "pure",
      "type": "function"
    },
    {
      "constant": true,
      "inputs": [
        {
          "name": "arrToCopy",
          "type": "bytes"
        }
      ],
      "name": "testCopy",
      "outputs": [
        {
          "name": "",
          "type": "bytes"
        }
      ],
      "payable": false,
      "stateMutability": "pure",
      "type": "function"
    },
    {
      "constant": true,
      "inputs": [
        {
          "name": "addr",
          "type": "address"
        }
      ],
      "name": "testCopyAddress",
      "outputs": [
        {
          "name": "",
          "type": "bytes"
        }
      ],
      "payable": false,
      "stateMutability": "pure",
      "type": "function"
    },
    {
      "constant": true,
      "inputs": [
        {
          "name": "side",
          "type": "uint8"
        },
        {
          "name": "saleKind",
          "type": "uint8"
        },
        {
          "name": "basePrice",
          "type": "uint256"
        },
        {
          "name": "extra",
          "type": "uint256"
        },
        {
          "name": "listingTime",
          "type": "uint256"
        },
        {
          "name": "expirationTime",
          "type": "uint256"
        }
      ],
      "name": "calculateFinalPrice",
      "outputs": [
        {
          "name": "",
          "type": "uint256"
        }
      ],
      "payable": false,
      "stateMutability": "view",
      "type": "function"
    },
    {
      "constant": true,
      "inputs": [
        {
          "name": "addrs",
          "type": "address[7]"
        },
        {
          "name": "uints",
          "type": "uint256[9]"
        },
        {
          "name": "feeMethod",
          "type": "uint8"
        },
        {
          "name": "side",
          "type": "uint8"
        },
        {
          "name": "saleKind",
          "type": "uint8"
        },
        {
          "name": "howToCall",
          "type": "uint8"
        },
        {
          "name": "calldata",
          "type": "bytes"
        },
        {
          "name": "replacementPattern",
          "type": "bytes"
        },
        {
          "name": "staticExtradata",
          "type": "bytes"
        }
      ],
      "name": "hashOrder_",
      "outputs": [
        {
          "name": "",
          "type": "bytes32"
        }
      ],
      "payable": false,
      "stateMutability": "pure",
      "type": "function"
    },
    {
      "constant": true,
      "inputs": [
        {
          "name": "addrs",
          "type": "address[7]"
        },
        {
          "name": "uints",
          "type": "uint256[9]"
        },
        {
          "name": "feeMethod",
          "type": "uint8"
        },
        {
          "name": "side",
          "type": "uint8"
        },
        {
          "name": "saleKind",
          "type": "uint8"
        },
        {
          "name": "howToCall",
          "type": "uint8"
        },
        {
          "name": "calldata",
          "type": "bytes"
        },
        {
          "name": "replacementPattern",
          "type": "bytes"
        },
        {
          "name": "staticExtradata",
          "type": "bytes"
        }
      ],
      "name": "hashToSign_",
      "outputs": [
        {
          "name": "",
          "type": "bytes32"
        }
      ],
      "payable": false,
      "stateMutability": "pure",
      "type": "function"
    },
    {
      "constant": true,
      "inputs": [
        {
          "name": "addrs",
          "type": "address[7]"
        },
        {
          "name": "uints",
          "type": "uint256[9]"
        },
        {
          "name": "feeMethod",
          "type": "uint8"
        },
        {
          "name": "side",
          "type": "uint8"
        },
        {
          "name": "saleKind",
          "type": "uint8"
        },
        {
          "name": "howToCall",
          "type": "uint8"
        },
        {
          "name": "calldata",
          "type": "bytes"
        },
        {
          "name": "replacementPattern",
          "type": "bytes"
        },
        {
          "name": "staticExtradata",
          "type": "bytes"
        }
      ],
      "name": "validateOrderParameters_",
      "outputs": [
        {
          "name": "",
          "type": "bool"
        }
      ],
      "payable": false,
      "stateMutability": "view",
      "type": "function"
    },
    {
      "constant": true,
      "inputs": [
        {
          "name": "addrs",
          "type": "address[7]"
        },
        {
          "name": "uints",
          "type": "uint256[9]"
        },
        {
          "name": "feeMethod",
          "type": "uint8"
        },
        {
          "name": "side",
          "type": "uint8"
        },
        {
          "name": "saleKind",
          "type": "uint8"
        },
        {
          "name": "howToCall",
          "type": "uint8"
        },
        {
          "name": "calldata",
          "type": "bytes"
        },
        {
          "name": "replacementPattern",
          "type": "bytes"
        },
        {
          "name": "staticExtradata",
          "type": "bytes"
        },
        {
          "name": "v",
          "type": "uint8"
        },
        {
          "name": "r",
          "type": "bytes32"
        },
        {
          "name": "s",
          "type": "bytes32"
        }
      ],
      "name": "validateOrder_",
      "outputs": [
        {
          "name": "",
          "type": "bool"
        }
      ],
      "payable": false,
      "stateMutability": "view",
      "type": "function"
    },
    {
      "constant": false,
      "inputs": [
        {
          "name": "addrs",
          "type": "address[7]"
        },
        {
          "name": "uints",
          "type": "uint256[9]"
        },
        {
          "name": "feeMethod",
          "type": "uint8"
        },
        {
          "name": "side",
          "type": "uint8"
        },
        {
          "name": "saleKind",
          "type": "uint8"
        },
        {
          "name": "howToCall",
          "type": "uint8"
        },
        {
          "name": "calldata",
          "type": "bytes"
        },
        {
          "name": "replacementPattern",
          "type": "bytes"
        },
        {
          "name": "staticExtradata",
          "type": "bytes"
        },
        {
          "name": "orderbookInclusionDesired",
          "type": "bool"
        }
      ],
      "name": "approveOrder_",
      "outputs": [],
      "payable": false,
      "stateMutability": "nonpayable",
      "type": "function"
    },
    {
      "constant": false,
      "inputs": [
        {
          "name": "addrs",
          "type": "address[7]"
        },
        {
          "name": "uints",
          "type": "uint256[9]"
        },
        {
          "name": "feeMethod",
          "type": "uint8"
        },
        {
          "name": "side",
          "type": "uint8"
        },
        {
          "name": "saleKind",
          "type": "uint8"
        },
        {
          "name": "howToCall",
          "type": "uint8"
        },
        {
          "name": "calldata",
          "type": "bytes"
        },
        {
          "name": "replacementPattern",
          "type": "bytes"
        },
        {
          "name": "staticExtradata",
          "type": "bytes"
        },
        {
          "name": "v",
          "type": "uint8"
        },
        {
          "name": "r",
          "type": "bytes32"
        },
        {
          "name": "s",
          "type": "bytes32"
        }
      ],
      "name": "cancelOrder_",
      "outputs": [],
      "payable": false,
      "stateMutability": "nonpayable",
      "type": "function"
    },
    {
      "constant": true,
      "inputs": [
        {
          "name": "addrs",
          "type": "address[7]"
        },
        {
          "name": "uints",
          "type": "uint256[9]"
        },
        {
          "name": "feeMethod",
          "type": "uint8"
        },
        {
          "name": "side",
          "type": "uint8"
        },
        {
          "name": "saleKind",
          "type": "uint8"
        },
        {
          "name": "howToCall",
          "type": "uint8"
        },
        {
          "name": "calldata",
          "type": "bytes"
        },
        {
          "name": "replacementPattern",
          "type": "bytes"
        },
        {
          "name": "staticExtradata",
          "type": "bytes"
        }
      ],
      "name": "calculateCurrentPrice_",
      "outputs": [
        {
          "name": "",
          "type": "uint256"
        }
      ],
      "payable": false,
      "stateMutability": "view",
      "type": "function"
    },
    {
      "constant": true,
      "inputs": [
        {
          "name": "addrs",
          "type": "address[14]"
        },
        {
          "name": "uints",
          "type": "uint256[18]"
        },
        {
          "name": "feeMethodsSidesKindsHowToCalls",
          "type": "uint8[8]"
        },
        {
          "name": "calldataBuy",
          "type": "bytes"
        },
        {
          "name": "calldataSell",
          "type": "bytes"
        },
        {
          "name": "replacementPatternBuy",
          "type": "bytes"
        },
        {
          "name": "replacementPatternSell",
          "type": "bytes"
        },
        {
          "name": "staticExtradataBuy",
          "type": "bytes"
        },
        {
          "name": "staticExtradataSell",
          "type": "bytes"
        }
      ],
      "name": "ordersCanMatch_",
      "outputs": [
        {
          "name": "",
          "type": "bool"
        }
      ],
      "payable": false,
      "stateMutability": "view",
      "type": "function"
    },
    {
      "constant": true,
      "inputs": [
        {
          "name": "buyCalldata",
          "type": "bytes"
        },
        {
          "name": "buyReplacementPattern",
          "type": "bytes"
        },
        {
          "name": "sellCalldata",
          "type": "bytes"
        },
        {
          "name": "sellReplacementPattern",
          "type": "bytes"
        }
      ],
      "name": "orderCalldataCanMatch",
      "outputs": [
        {
          "name": "",
          "type": "bool"
        }
      ],
      "payable": false,
      "stateMutability": "pure",
      "type": "function"
    },
    {
      "constant": true,
      "inputs": [
        {
          "name": "addrs",
          "type": "address[14]"
        },
        {
          "name": "uints",
          "type": "uint256[18]"
        },
        {
          "name": "feeMethodsSidesKindsHowToCalls",
          "type": "uint8[8]"
        },
        {
          "name": "calldataBuy",
          "type": "bytes"
        },
        {
          "name": "calldataSell",
          "type": "bytes"
        },
        {
          "name": "replacementPatternBuy",
          "type": "bytes"
        },
        {
          "name": "replacementPatternSell",
          "type": "bytes"
        },
        {
          "name": "staticExtradataBuy",
          "type": "bytes"
        },
        {
          "name": "staticExtradataSell",
          "type": "bytes"
        }
      ],
      "name": "calculateMatchPrice_",
      "outputs": [
        {
          "name": "",
          "type": "uint256"
        }
      ],
      "payable": false,
      "stateMutability": "view",
      "type": "function"
    },
    {
      "constant": false,
      "inputs": [
        {
          "name": "addrs",
          "type": "address[14]"
        },
        {
          "name": "uints",
          "type": "uint256[18]"
        },
        {
          "name": "feeMethodsSidesKindsHowToCalls",
          "type": "uint8[8]"
        },
        {
          "name": "calldataBuy",
          "type": "bytes"
        },
        {
          "name": "calldataSell",
          "type": "bytes"
        },
        {
          "name": "replacementPatternBuy",
          "type": "bytes"
        },
        {
          "name": "replacementPatternSell",
          "type": "bytes"
        },
        {
          "name": "staticExtradataBuy",
          "type": "bytes"
        },
        {
          "name": "staticExtradataSell",
          "type": "bytes"
        },
        {
          "name": "vs",
          "type": "uint8[2]"
        },
        {
          "name": "rssMetadata",
          "type": "bytes32[5]"
        }
      ],
      "name": "atomicMatch_",
      "outputs": [],
      "payable": true,
      "stateMutability": "payable",
      "type": "function"
    }
  ],
  "bytecode": "0x60806040526000805460068290556007829055600160a060020a03331661010002600160a860020a0319909116179055614b578061003e6000396000f3006080604052600436106101665763ffffffff60e060020a6000350416630eefdbad811461016b57806310796a471461019c57806314350c24146102555780631a6b13e21461026f578063239e83df1461028757806328a8ee68146103d15780633464af6a146103f85780633e1e292a146104195780633f67ee0d14610472578063514f0330146105b7578063562b2ebc146105d857806360bef33a146106eb57806363d36c0b1461083f57806364df049e1461086c57806371d02b381461088157806372593b4c146109c65780637966686814610bcd5780637b10399914610d165780637ccefc5214610d2b5780637d76698114610d405780638076f00514610e855780638da5cb5b14610e9d578063a25eb5d914610eb2578063a8a41c7014610ec7578063ab834bab1461101b578063ca595b9a1461125e578063cae6047f146113a3578063d537e131146113b8578063e57d4adb146115bf578063f2fde38b146115d7575b600080fd5b34801561017757600080fd5b506101806115f8565b60408051600160a060020a039092168252519081900360200190f35b3480156101a857600080fd5b5060408051602060046024803582810135601f8101859004850286018501909652858552610241958335600160a060020a031695369560449491939091019190819084018382808284375050604080516020601f89358b018035918201839004830284018301909452808352979a9998810197919650918201945092508291508401838280828437509497506116079650505050505050565b604080519115158252519081900360200190f35b34801561026157600080fd5b5061026d600435611676565b005b34801561027b57600080fd5b5061026d60043561169b565b34801561029357600080fd5b506040805160206004803580820135601f810184900484028501840190955284845261035c94369492936024939284019190819084018382808284375050604080516020601f89358b018035918201839004830284018301909452808352979a99988101979196509182019450925082915084018382808284375050604080516020601f89358b018035918201839004830284018301909452808352979a9998810197919650918201945092508291508401838280828437509497506116c09650505050505050565b6040805160208082528351818301528351919283929083019185019080838360005b8381101561039657818101518382015260200161037e565b50505050905090810190601f1680156103c35780820380516001836020036101000a031916815260200191505b509250505060405180910390f35b3480156103dd57600080fd5b506103e66116d7565b60408051918252519081900360200190f35b34801561040457600080fd5b5061035c600160a060020a03600435166116dd565b34801561042557600080fd5b506040805160206004803580820135601f810184900484028501840190955284845261035c94369492936024939284019190819084018382808284375094975061171d9650505050505050565b34801561047e57600080fd5b506040805160e08181019092526103e691369160049160e49190839060079083908390808284375050604080516101208181019092529497969581810195945092506009915083908390808284375050604080516020601f60808901358a0180359182018390048302840183018552818452979a60ff8a3581169b848c013582169b9687013582169a6060880135909216995091975090955060a090940193820191819084018382808284375050604080516020601f89358b018035918201839004830284018301909452808352979a99988101979196509182019450925082915084018382808284375050604080516020601f89358b018035918201839004830284018301909452808352979a9998810197919650918201945092508291508401838280828437509497506117639650505050505050565b3480156105c357600080fd5b5061026d600160a060020a03600435166118b1565b3480156105e457600080fd5b506040805160206004803580820135601f810184900484028501840190955284845261024194369492936024939284019190819084018382808284375050604080516020601f89358b018035918201839004830284018301909452808352979a99988101979196509182019450925082915084018382808284375050604080516020601f89358b018035918201839004830284018301909452808352979a99988101979196509182019450925082915084018382808284375050604080516020601f89358b018035918201839004830284018301909452808352979a9998810197919650918201945092508291508401838280828437509497506119009650505050505050565b3480156106f757600080fd5b506040805160e081810190925261024191369160049160e49190839060079083908390808284375050604080516101208181019092529497969581810195945092506009915083908390808284375050604080516020601f60808901358a0180359182018390048302840183018552818452979a60ff8a3581169b848c013582169b9687013582169a6060880135909216995091975090955060a090940193820191819084018382808284375050604080516020601f89358b018035918201839004830284018301909452808352979a99988101979196509182019450925082915084018382808284375050604080516020601f89358b018035918201839004830284018301909452808352979a9998810197919650918201945092508291508401838280828437509497505050833560ff169450505060208201359160400135905061193e565b34801561084b57600080fd5b506103e660ff6004358116906024351660443560643560843560a435611b2d565b34801561087857600080fd5b50610180611b48565b34801561088d57600080fd5b506040805160e08181019092526103e691369160049160e49190839060079083908390808284375050604080516101208181019092529497969581810195945092506009915083908390808284375050604080516020601f60808901358a0180359182018390048302840183018552818452979a60ff8a3581169b848c013582169b9687013582169a6060880135909216995091975090955060a090940193820191819084018382808284375050604080516020601f89358b018035918201839004830284018301909452808352979a99988101979196509182019450925082915084018382808284375050604080516020601f89358b018035918201839004830284018301909452808352979a999881019791965091820194509250829150840183828082843750949750611b579650505050505050565b3480156109d257600080fd5b50604080516101c08181019092526102419136916004916101c491908390600e9083908390808284375050604080516102408181019092529497969581810195945092506012915083908390808284375050604080516101008181019092529497969581810195945092506008915083908390808284375050604080516020601f88358a0180359182018390048302840183019094528083529699989781019691955091820193509150819084018382808284375050604080516020601f89358b018035918201839004830284018301909452808352979a99988101979196509182019450925082915084018382808284375050604080516020601f89358b018035918201839004830284018301909452808352979a99988101979196509182019450925082915084018382808284375050604080516020601f89358b018035918201839004830284018301909452808352979a99988101979196509182019450925082915084018382808284375050604080516020601f89358b018035918201839004830284018301909452808352979a99988101979196509182019450925082915084018382808284375050604080516020601f89358b018035918201839004830284018301909452808352979a999881019791965091820194509250829150840183828082843750949750611c979650505050505050565b348015610bd957600080fd5b506040805160e081810190925261026d91369160049160e49190839060079083908390808284375050604080516101208181019092529497969581810195945092506009915083908390808284375050604080516020601f60808901358a0180359182018390048302840183018552818452979a60ff8a3581169b848c013582169b9687013582169a6060880135909216995091975090955060a090940193820191819084018382808284375050604080516020601f89358b018035918201839004830284018301909452808352979a99988101979196509182019450925082915084018382808284375050604080516020601f89358b018035918201839004830284018301909452808352979a999881019791965091820194509250829150840183828082843750949750505050913515159250612083915050565b348015610d2257600080fd5b506101806121d8565b348015610d3757600080fd5b506103e66121e7565b348015610d4c57600080fd5b506040805160e08181019092526103e691369160049160e49190839060079083908390808284375050604080516101208181019092529497969581810195945092506009915083908390808284375050604080516020601f60808901358a0180359182018390048302840183018552818452979a60ff8a3581169b848c013582169b9687013582169a6060880135909216995091975090955060a090940193820191819084018382808284375050604080516020601f89358b018035918201839004830284018301909452808352979a99988101979196509182019450925082915084018382808284375050604080516020601f89358b018035918201839004830284018301909452808352979a9998810197919650918201945092508291508401838280828437509497506121ed9650505050505050565b348015610e9157600080fd5b5061024160043561232d565b348015610ea957600080fd5b50610180612342565b348015610ebe57600080fd5b50610180612356565b348015610ed357600080fd5b506040805160e081810190925261026d91369160049160e49190839060079083908390808284375050604080516101208181019092529497969581810195945092506009915083908390808284375050604080516020601f60808901358a0180359182018390048302840183018552818452979a60ff8a3581169b848c013582169b9687013582169a6060880135909216995091975090955060a090940193820191819084018382808284375050604080516020601f89358b018035918201839004830284018301909452808352979a99988101979196509182019450925082915084018382808284375050604080516020601f89358b018035918201839004830284018301909452808352979a9998810197919650918201945092508291508401838280828437509497505050833560ff1694505050602082013591604001359050612365565b604080516101c081810190925261026d9136916004916101c491908390600e9083908390808284375050604080516102408181019092529497969581810195945092506012915083908390808284375050604080516101008181019092529497969581810195945092506008915083908390808284375050604080516020601f88358a0180359182018390048302840183019094528083529699989781019691955091820193509150819084018382808284375050604080516020601f89358b018035918201839004830284018301909452808352979a99988101979196509182019450925082915084018382808284375050604080516020601f89358b018035918201839004830284018301909452808352979a99988101979196509182019450925082915084018382808284375050604080516020601f89358b018035918201839004830284018301909452808352979a99988101979196509182019450925082915084018382808284375050604080516020601f89358b018035918201839004830284018301909452808352979a99988101979196509182019450925082915084018382808284375050604080516020601f89358b018035918201839004830284018301909452808352979a999881019791965091820194509250829150840183828082843750506040805180820182529598979681810196955093506002925084915083908082843750506040805160a08181019092529497969581810195945092506005915083908390808284375093965061253b95505050505050565b34801561126a57600080fd5b506040805160e081810190925261024191369160049160e49190839060079083908390808284375050604080516101208181019092529497969581810195945092506009915083908390808284375050604080516020601f60808901358a0180359182018390048302840183018552818452979a60ff8a3581169b848c013582169b9687013582169a6060880135909216995091975090955060a090940193820191819084018382808284375050604080516020601f89358b018035918201839004830284018301909452808352979a99988101979196509182019450925082915084018382808284375050604080516020601f89358b018035918201839004830284018301909452808352979a9998810197919650918201945092508291508401838280828437509497506129519650505050505050565b3480156113af57600080fd5b506103e6612aa9565b3480156113c457600080fd5b50604080516101c08181019092526103e69136916004916101c491908390600e9083908390808284375050604080516102408181019092529497969581810195945092506012915083908390808284375050604080516101008181019092529497969581810195945092506008915083908390808284375050604080516020601f88358a0180359182018390048302840183019094528083529699989781019691955091820193509150819084018382808284375050604080516020601f89358b018035918201839004830284018301909452808352979a99988101979196509182019450925082915084018382808284375050604080516020601f89358b018035918201839004830284018301909452808352979a99988101979196509182019450925082915084018382808284375050604080516020601f89358b018035918201839004830284018301909452808352979a99988101979196509182019450925082915084018382808284375050604080516020601f89358b018035918201839004830284018301909452808352979a99988101979196509182019450925082915084018382808284375050604080516020601f89358b018035918201839004830284018301909452808352979a999881019791965091820194509250829150840183828082843750949750612aaf9650505050505050565b3480156115cb57600080fd5b50610241600435612e8b565b3480156115e357600080fd5b5061026d600160a060020a0360043516612ea0565b600354600160a060020a031681565b60006060600083518551016040519080825280601f01601f19166020018201604052801561163f578160200160208202803883390190505b50915050602081016116518185612f48565b905061165d8186612f48565b506000604051835160208501895afa9695505050505050565b60005433600160a060020a03908116610100909204161461169657600080fd5b600655565b60005433600160a060020a0390811661010090920416146116bb57600080fd5b600755565b60606116cd848484612f8e565b50825b9392505050565b60075481565b6040805160148082528183019092526060918291600091602082016102808038833901905050915050602081016117148185613115565b50909392505050565b606080600083516040519080825280601f01601f191660200182016040528015611751578160200160208202803883390190505b50915050602081016117148185612f48565b604080516102e0810182528a51600160a060020a0390811682526020808d01518216818401528c8401518216838501528b51606080850191909152908c01516080840152928b015160a08301528a83015160c0830152918b015190911660e08201526000906118a39061010081018a60018111156117dd57fe5b81526020018960018111156117ee57fe5b81526020018860018111156117ff57fe5b815260808d0151600160a060020a0316602082015260400187600181111561182357fe5b8152602081018790526040810186905260a0808e0151600160a060020a0316606083015260808201869052018c600660209081029190910151600160a060020a031682526080808e01519183019190915260a0808e0151604084015260c08e0151606084015260e08e0151918301919091526101008d0151910152613135565b9a9950505050505050505050565b60005433600160a060020a0390811661010090920416146118d157600080fd5b6008805473ffffffffffffffffffffffffffffffffffffffff1916600160a060020a0392909216919091179055565b6000808451111561191657611916858486612f8e565b60008251111561192b5761192b838684612f8e565b611935858461316b565b95945050505050565b6000611948614a67565b604080516102e08101909152808f600060209081029190910151600160a060020a03168252018f600160209081029190910151600160a060020a03168252018f600260209081029190910151600160a060020a03168252018e6000602090810291909101518252018e6001602090810291909101518252018e6002602090810291909101518252018e6003602090810291909101518252018f60036020020151600160a060020a031681526020018d6001811115611a0257fe5b81526020018c6001811115611a1357fe5b81526020018b6001811115611a2457fe5b81526020018f60046020020151600160a060020a031681526020018a6001811115611a4b57fe5b8152602081018a9052604081018990526060018f60056020020151600160a060020a031681526020018781526020018f6006600781101515611a8957fe5b60209081029190910151600160a060020a03168252018e6004602090810291909101518252018e6005602090810291909101518252018e6006602090810291909101518252018e6007602090810291909101518252018e6008602002015190529050611b1b611af7826131cf565b6040805160608101825260ff8916815260208101889052908101869052839061321a565b9e9d5050505050505050505050505050565b6000611b3d87878787878761330f565b979650505050505050565b600854600160a060020a031681565b604080516102e0810182528a51600160a060020a0390811682526020808d01518216818401528c8401518216838501528b51606080850191909152908c01516080840152928b015160a08301528a83015160c0830152918b015190911660e08201526000906118a39061010081018a6001811115611bd157fe5b8152602001896001811115611be257fe5b8152602001886001811115611bf357fe5b815260808d0151600160a060020a03166020820152604001876001811115611c1757fe5b8152602081018790526040810186905260a0808e0151600160a060020a0316606083015260808201869052018c600660209081029190910151600160a060020a031682526080808e01519183019190915260a0808e0151604084015260c08e0151606084015260e08e0151918301919091526101008d01519101526133a2565b6000611ca1614a67565b611ca9614a67565b604080516102e08101909152808d600060209081029190910151600160a060020a03168252018d600160209081029190910151600160a060020a03168252018d600260209081029190910151600160a060020a03168252018c6000602090810291909101518252018c6001602090810291909101518252018c6002602090810291909101518252018c6003602090810291909101518252018d600360209081029190910151600160a060020a03168252018b6000602002015160ff166001811115611d7057fe5b6001811115611d7b57fe5b81526020018b6001602002015160ff166001811115611d9657fe5b6001811115611da157fe5b81526020018b6002602002015160ff166001811115611dbc57fe5b6001811115611dc757fe5b815260808e0151600160a060020a0316602082015260608c015160409091019060ff166001811115611df557fe5b6001811115611e0057fe5b8152602081018b90526040810189905260a0808f0151600160a060020a0316606083015260808201889052018d600660209081029190910151600160a060020a03168252018c6004602090810291909101518252018c6005602090810291909101518252018c6006602090810291909101518252018c6007602090810291909101518252018c600860200201519052604080516102e08101909152909250808d600760209081029190910151600160a060020a03168252018d600860209081029190910151600160a060020a03168252018d600960209081029190910151600160a060020a03168252018c6009602090810291909101518252018c600a602090810291909101518252018c600b602090810291909101518252018c600c602090810291909101518252018d600a60209081029190910151600160a060020a03168252018b6004602002015160ff166001811115611f5957fe5b6001811115611f6457fe5b81526020018b6005602002015160ff166001811115611f7f57fe5b6001811115611f8a57fe5b81526020018b6006602002015160ff166001811115611fa557fe5b6001811115611fb057fe5b81526101608e0151600160a060020a0316602082015260e08c015160409091019060ff166001811115611fdf57fe5b6001811115611fea57fe5b8152602081018a9052604081018890526101808e0151600160a060020a031660608201526080810186905260a0018d600d60209081029190910151600160a060020a031682526101a08e0151908201526101c08d015160408201526101e08d015160608201526102008d015160808201526102208d015160a09091015290506120738282613591565b9c9b505050505050505050505050565b61208b614a67565b604080516102e0810182528c51600160a060020a0390811682526020808f01518216818401528e8401518216838501528d51606080850191909152908e01516080840152928d015160a08301528c83015160c0830152918d015190911660e082015261010081018a60018111156120fe57fe5b815260200189600181111561210f57fe5b815260200188600181111561212057fe5b815260808d0151600160a060020a0316602082015260400187600181111561214457fe5b8152602081018790526040810186905260a0808e0151600160a060020a0316606083015260808201869052018c600660209081029190910151600160a060020a031682526080808e01519183019190915260a0808e0151604084015260c08e0151606084015260e08e0151918301919091526101008d015191015290506121cb818361376b565b5050505050505050505050565b600254600160a060020a031681565b60065481565b604080516102e0810182528a51600160a060020a0390811682526020808d01518216818401528c8401518216838501528b51606080850191909152908c01516080840152928b015160a08301528a83015160c0830152918b015190911660e08201526000906118a39061010081018a600181111561226757fe5b815260200189600181111561227857fe5b815260200188600181111561228957fe5b815260808d0151600160a060020a031660208201526040018760018111156122ad57fe5b8152602081018790526040810186905260a0808e0151600160a060020a0316606083015260808201869052018c600660209081029190910151600160a060020a031682526080808e01519183019190915260a0808e0151604084015260c08e0151606084015260e08e0151918301919091526101008d01519101526131cf565b60046020526000908152604090205460ff1681565b6000546101009004600160a060020a031681565b600154600160a060020a031681565b604080516102e0810190915261252d90808e600060209081029190910151600160a060020a03168252018e600160209081029190910151600160a060020a03168252018e600260209081029190910151600160a060020a03168252018d6000602090810291909101518252018d6001602090810291909101518252018d6002602090810291909101518252018d6003602090810291909101518252018e60036020020151600160a060020a031681526020018c600181111561242357fe5b81526020018b600181111561243457fe5b81526020018a600181111561244557fe5b815260808f0151600160a060020a0316602082015260400189600181111561246957fe5b815260208101899052604081018890526060018e60056020020151600160a060020a031681526020018681526020018e60066007811015156124a757fe5b60209081029190910151600160a060020a03168252018d6004602090810291909101518252018d6005602090810291909101518252018d6006602090810291909101518252018d6007602090810291909101518252018d6008602090810291909101519091526040805160608101825260ff881681529182018690528101849052613b39565b505050505050505050505050565b604080516102e0810182528c51600160a060020a0390811682526020808f01518216818401528e8401518216838501528d51606080850191909152908e01516080840152928d015160a08301528c83015160c0830152918d015190911660e082015289516121cb919061010082019060ff1660018111156125b857fe5b60018111156125c357fe5b81526020018b6001602002015160ff1660018111156125de57fe5b60018111156125e957fe5b81526020018b6002602002015160ff16600181111561260457fe5b600181111561260f57fe5b815260808e0151600160a060020a0316602082015260608c015160409091019060ff16600181111561263d57fe5b600181111561264857fe5b8152602081018b90526040810189905260a0808f0151600160a060020a0316606083015260808201889052018d600660209081029190910151600160a060020a03168252018c6004602090810291909101518252018c6005602090810291909101518252018c6006602090810291909101518252018c6007602090810291909101518252018c6008602002015190526040805160608101909152808560006020908102919091015160ff168252018460006020908102919091015182520184600160200201519052604080516102e08101909152808f600760209081029190910151600160a060020a03168252018f600860209081029190910151600160a060020a03168252018f600960209081029190910151600160a060020a03168252018e6009602090810291909101518252018e600a602090810291909101518252018e600b602090810291909101518252018e600c602090810291909101518252018f600a60209081029190910151600160a060020a03168252018d6004602002015160ff1660018111156127d757fe5b60018111156127e257fe5b81526020018d6005602002015160ff1660018111156127fd57fe5b600181111561280857fe5b81526020018d6006602002015160ff16600181111561282357fe5b600181111561282e57fe5b81526020018f600b60209081029190910151600160a060020a03168252018d6007602002015160ff16600181111561286257fe5b600181111561286d57fe5b8152602081018c9052604081018a90526060018f600c6020020151600160a060020a031681526020018781526020018f600d600e811015156128ab57fe5b60209081029190910151600160a060020a03168252018e600d602090810291909101518252018e600e602090810291909101518252018e600f602090810291909101518252018e6010602090810291909101518252018e6011602002015190526040805160608101909152808760016020908102919091015160ff1682520186600260209081029190910151825201866003602002015190528560046020020151613bb0565b600061295b614a67565b604080516102e0810182528c51600160a060020a0390811682526020808f01518216818401528e8401518216838501528d51606080850191909152908e01516080840152928d015160a08301528c83015160c0830152918d015190911660e082015261010081018a60018111156129ce57fe5b81526020018960018111156129df57fe5b81526020018860018111156129f057fe5b815260808d0151600160a060020a03166020820152604001876001811115612a1457fe5b8152602081018790526040810186905260a0808e0151600160a060020a0316606083015260808201869052018c600660209081029190910151600160a060020a031682526080808e01519183019190915260a0808e0151604084015260c08e0151606084015260e08e0151918301919091526101008d01519101529050612a9a81614190565b9b9a5050505050505050505050565b61271081565b6000612ab9614a67565b612ac1614a67565b604080516102e08101909152808d600060209081029190910151600160a060020a03168252018d600160209081029190910151600160a060020a03168252018d600260209081029190910151600160a060020a03168252018c6000602090810291909101518252018c6001602090810291909101518252018c6002602090810291909101518252018c6003602090810291909101518252018d600360209081029190910151600160a060020a03168252018b6000602002015160ff166001811115612b8857fe5b6001811115612b9357fe5b81526020018b6001602002015160ff166001811115612bae57fe5b6001811115612bb957fe5b81526020018b6002602002015160ff166001811115612bd457fe5b6001811115612bdf57fe5b815260808e0151600160a060020a0316602082015260608c015160409091019060ff166001811115612c0d57fe5b6001811115612c1857fe5b8152602081018b90526040810189905260a0808f0151600160a060020a0316606083015260808201889052018d600660209081029190910151600160a060020a03168252018c6004602090810291909101518252018c6005602090810291909101518252018c6006602090810291909101518252018c6007602090810291909101518252018c600860200201519052604080516102e08101909152909250808d600760209081029190910151600160a060020a03168252018d600860209081029190910151600160a060020a03168252018d600960209081029190910151600160a060020a03168252018c6009602090810291909101518252018c600a602090810291909101518252018c600b602090810291909101518252018c600c602090810291909101518252018d600a60209081029190910151600160a060020a03168252018b6004602002015160ff166001811115612d7157fe5b6001811115612d7c57fe5b81526020018b6005602002015160ff166001811115612d9757fe5b6001811115612da257fe5b81526020018b6006602002015160ff166001811115612dbd57fe5b6001811115612dc857fe5b81526101608e0151600160a060020a0316602082015260e08c015160409091019060ff166001811115612df757fe5b6001811115612e0257fe5b8152602081018a9052604081018890526101808e0151600160a060020a031660608201526080810186905260a0018d600d60209081029190910151600160a060020a031682526101a08e0151908201526101c08d015160408201526101e08d015160608201526102008d015160808201526102208d015160a09091015290506120738282614224565b60056020526000908152604090205460ff1681565b60005433600160a060020a039081166101009092041614612ec057600080fd5b600160a060020a0381161515612ed557600080fd5b60008054604051600160a060020a038085169361010090930416917f8be0079c531659141344cd1fd0a4f28419497f9722a3daafe3b4186f6b6457e091a360008054600160a060020a039092166101000274ffffffffffffffffffffffffffffffffffffffff0019909216919091179055565b60008082511115612f8557815180602001830160208401855b60018383101415612f7c578151815260209182019101612f61565b50505092909201915b50815b92915050565b600080600084518651141515612fa357600080fd5b8351865114612fb157600080fd5b8551602090049250602080840292508390830414612fcb57fe5b5060005b82811015612ffb5760010160208102848101518682015191880180519282169119909216179052612fcf565b600083111561302b578290508060010160200280850151818701518116828901518219161782890152505061310d565b50805b855181101561310d57848181518110151561304557fe5b90602001015160f860020a900460f860020a02848281518110151561306657fe5b90602001015160f860020a900460f860020a0216868281518110151561308857fe5b90602001015160f860020a900460f860020a0285838151811015156130a957fe5b90602001015160f860020a900460f860020a0260ff60f860020a0218161786828151811015156130d557fe5b9060200101907effffffffffffffffffffffffffffffffffffffffffffffffffffffffffffff1916908160001a90535060010161302e565b505050505050565b600160a060020a03166c0100000000000000000000000002815260140190565b6000613163826101200151836101400151846102400151856102600151866102800151876102a0015161330f565b90505b919050565b81518151600091600191811480831461318757600092506131c5565b600160208701838101602088015b6002848385100114156131c05780518351146131b45760009650600093505b60209283019201613195565b505050505b5090949350505050565b60006131da826133a2565b604080517f19457468657265756d205369676e6564204d6573736167653a0a3332000000008152601c8101929092525190819003603c0190209050919050565b600061322583614190565b1515613233575060006116d0565b60008481526004602052604090205460ff1615613252575060006116d0565b60008481526005602052604090205460ff1615613271575060016116d0565b602080840151835184830151604080870151815160008082528188018085528c905260ff909516818401526060810193909352608083015251600160a060020a039093169360019360a0808401949293601f19830193908390039091019190865af11580156132e4573d6000803e3d6000fd5b50505060206040510351600160a060020a03161415613305575060016116d0565b5060009392505050565b6000808087600181111561331f57fe5b141561332d57859150613397565b600187600181111561333b57fe5b1415613397576133666133578661335242886142b4565b6142c6565b61336185876142b4565b6142ef565b9050600188600181111561337657fe5b141561338d5761338686826142b4565b9150613397565b6133868682614304565b509695505050505050565b600080606060006133b285614311565b9250826040519080825280601f01601f1916602001820160405280156133e2578160200160208202803883390190505b5091506020820190506133f9818660000151613115565b9050613409818660200151613115565b9050613419818660400151613115565b9050613429818660600151614331565b9050613439818660800151614331565b9050613449818660a00151614331565b9050613459818660c00151614331565b9050613469818660e00151613115565b905061348581866101000151600181111561348057fe5b614339565b905061349c81866101200151600181111561348057fe5b90506134b381866101400151600181111561348057fe5b90506134c481866101600151613115565b90506134db81866101800151600181111561348057fe5b90506134ec81866101a00151612f48565b90506134fd81866101c00151612f48565b905061350e81866101e00151613115565b905061351f81866102000151612f48565b905061353081866102200151613115565b905061354181866102400151614331565b905061355281866102600151614331565b905061356381866102800151614331565b905061357481866102a00151614331565b905061358581866102c00151614331565b50506020012092915050565b60008083610120015160018111156135a557fe5b1480156135c25750600182610120015160018111156135c057fe5b145b80156135ed575081610100015160018111156135da57fe5b83610100015160018111156135eb57fe5b145b80156136145750816102200151600160a060020a0316836102200151600160a060020a0316145b801561364e57506040820151600160a060020a0316158061364e57508260200151600160a060020a03168260400151600160a060020a0316145b801561368857506040830151600160a060020a0316158061368857508160200151600160a060020a03168360400151600160a060020a0316145b80156136e3575060e0820151600160a060020a03161580156136b6575060e0830151600160a060020a031615155b806136e3575060e0820151600160a060020a0316158015906136e3575060e0830151600160a060020a0316155b801561370a5750816101600151600160a060020a0316836101600151600160a060020a0316145b80156137355750816101800151600181111561372257fe5b836101800151600181111561373357fe5b145b80156137505750613750836102800151846102a00151614346565b80156116d057506116d0826102800151836102a00151614346565b60008260200151600160a060020a031633600160a060020a031614151561379157600080fd5b61379a836131cf565b60008181526005602052604090205490915060ff16156137b957600080fd5b600160056000836000191660001916815260200190815260200160002060006101000a81548160ff0219169083151502179055508260e00151600160a060020a03168360200151600160a060020a031682600019167f90c7f9f5b58c15f0f635bfb99f55d3d78fdbef3559e7d8abf5c81052a527662286600001518760400151886060015189608001518a60a001518b60c001518c61010001518d61012001518e61014001518f6101600151604051808b600160a060020a0316600160a060020a031681526020018a600160a060020a0316600160a060020a031681526020018981526020018881526020018781526020018681526020018560018111156138bd57fe5b60ff1681526020018460018111156138d157fe5b60ff1681526020018360018111156138e557fe5b60ff168152600160a060020a039092166020830152506040805191829003019950975050505050505050a480600019167fe55393c778364e440d958b39ac1debd99dcfae3775a8a04d1e79124adf6a2d08846101800151856101a00151866101c00151876101e001518861020001518961022001518a61024001518b61026001518c61028001518d6102a001518e6102c001518e604051808d600181111561398957fe5b60ff16815260200180602001806020018c600160a060020a0316600160a060020a03168152602001806020018b600160a060020a0316600160a060020a031681526020018a81526020018981526020018881526020018781526020018681526020018515151515815260200184810384528f818151815260200191508051906020019080838360005b83811015613a2a578181015183820152602001613a12565b50505050905090810190601f168015613a575780820380516001836020036101000a031916815260200191505b5084810383528e818151815260200191508051906020019080838360005b83811015613a8d578181015183820152602001613a75565b50505050905090810190601f168015613aba5780820380516001836020036101000a031916815260200191505b5084810382528c5181528c516020918201918e019080838360005b83811015613aed578181015183820152602001613ad5565b50505050905090810190601f168015613b1a5780820380516001836020036101000a031916815260200191505b509f5050505050505050505050505050505060405180910390a2505050565b6000613b458383614362565b90508260200151600160a060020a031633600160a060020a0316141515613b6b57600080fd5b600081815260046020526040808220805460ff191660011790555182917f5152abf959f6564662358c2e52b702259b78bac5ee7842a0f01937e670efcc7d91a2505050565b6000805481908190819081908190819060ff1615613bcd57600080fd5b6000805460ff1916600117905560208c0151600160a060020a0390811633919091161415613c0e57613bfe8c614190565b1515613c0957600080fd5b613c1b565b613c188c8c614362565b96505b33600160a060020a03168a60200151600160a060020a03161415613c5257613c428a614190565b1515613c4d57600080fd5b613c5f565b613c5c8a8a614362565b95505b613c698c8b613591565b1515613c7457600080fd5b6101608a0151803b9550935060008511613c8d57600080fd5b60008c6101c00151511115613cb657613cb68c6101a001518b6101a001518e6101c00151612f8e565b60008a6101c00151511115613cdf57613cdf8a6101a001518d6101a001518c6101c00151612f8e565b613cf38c6101a001518b6101a0015161316b565b1515613cfe57600080fd5b6002546020808c0151604080517fc4552791000000000000000000000000000000000000000000000000000000008152600160a060020a0392831660048201529051919093169263c45527919260248083019391928290030181600087803b158015613d6957600080fd5b505af1158015613d7d573d6000803e3d6000fd5b505050506040513d6020811015613d9357600080fd5b50519250600160a060020a0383161515613dac57600080fd5b600260009054906101000a9004600160a060020a0316600160a060020a03166397204d8e6040518163ffffffff1660e060020a028152600401602060405180830381600087803b158015613dff57600080fd5b505af1158015613e13573d6000803e3d6000fd5b505050506040513d6020811015613e2957600080fd5b5051604080517f5c60da1b0000000000000000000000000000000000000000000000000000000081529051600160a060020a0392831692861691635c60da1b9160048083019260209291908290030181600087803b158015613e8a57600080fd5b505af1158015613e9e573d6000803e3d6000fd5b505050506040513d6020811015613eb457600080fd5b5051600160a060020a031614613ec957600080fd5b8291508b60200151600160a060020a031633600160a060020a0316141515613f05576000878152600460205260409020805460ff191660011790555b8960200151600160a060020a031633600160a060020a0316141515613f3e576000868152600460205260409020805460ff191660011790555b613f488c8b614386565b905081600160a060020a0316631b0f7ba98b61016001518c61018001518d6101a001516040518463ffffffff1660e060020a0281526004018084600160a060020a0316600160a060020a03168152602001836001811115613fa557fe5b60ff16815260200180602001828103825283818151815260200191508051906020019080838360005b83811015613fe6578181015183820152602001613fce565b50505050905090810190601f1680156140135780820380516001836020036101000a031916815260200191505b50945050505050602060405180830381600087803b15801561403457600080fd5b505af1158015614048573d6000803e3d6000fd5b505050506040513d602081101561405e57600080fd5b5051151561406b57600080fd5b6101e08c0151600160a060020a0316156140a4576140998c6101e001518b6101a001518e6102000151611607565b15156140a457600080fd5b6101e08a0151600160a060020a0316156140dd576140d28a6101e001518b6101a001518c6102000151611607565b15156140dd57600080fd5b60e08a01518890600160a060020a031615156140fd578a60200151614103565b8c602001515b60e08c0151600160a060020a0391821691161515614125578d6020015161412b565b8b602001515b604080518b8152602081018b90528082018690529051600160a060020a0392909216917fc4109843e0b7d514e4c093114b863f8e7d8d9a458c372cd51bfe526b588006c99181900360600190a450506000805460ff1916905550505050505050505050565b600030600160a060020a03168260000151600160a060020a03161415156141b957506000613166565b6141cd826101400151836102a00151614966565b15156141db57506000613166565b600182610100015160018111156141ee57fe5b14801561420f57506006548260a00151108061420f57506007548260c00151105b1561421c57506000613166565b506001919050565b6000806000614255846101200151856101400151866102400151876102600151886102800151896102a0015161330f565b91506142838561012001518661014001518761024001518861026001518961028001518a6102a0015161330f565b90508181101561429257600080fd5b60e0840151600160a060020a031615156142ac5780611935565b509392505050565b6000828211156142c057fe5b50900390565b60008215156142d757506000612f88565b508181028183828115156142e757fe5b0414612f8857fe5b600081838115156142fc57fe5b049392505050565b81810182811015612f8857fe5b610200810151516101c0820151516101a08301515101016101b001919050565b815260200190565b6000818353505060010190565b600042831080156116d057508115806116d05750504210919050565b60008061436e846131cf565b905061437b81858561321a565b15156116d057600080fd5b600080600080600080600080600080600160a060020a03168a6102200151600160a060020a03161415156143bf5734156143bf57600080fd5b6143c98b8b614224565b97506000881180156143e857506102208a0151600160a060020a031615155b15614406576144068a61022001518c602001518c602001518b614985565b60e08a0151889750879650600160a060020a031615614722576080808c0151908b0151111561443457600080fd5b60018a6101000151600181111561444757fe5b14156146ef5760c0808c0151908b0151111561446257600080fd5b60008a606001511115614506576144886144808b606001518a6142c6565b6127106142ef565b6102208b0151909550600160a060020a031615156144ed576144aa87866142b4565b60e08b0151604051919850600160a060020a03169086156108fc029087906000818181858888f193505050501580156144e7573d6000803e3d6000fd5b50614506565b6145068a61022001518b602001518c60e0015188614985565b60008a6080015111156145a2576145246144808b608001518a6142c6565b6102208b0151909450600160a060020a03161515614589576145468685614304565b60e08b0151604051919750600160a060020a03169085156108fc029086906000818181858888f19350505050158015614583573d6000803e3d6000fd5b506145a2565b6145a28a61022001518c602001518c60e0015187614985565b60008a60a001511115614646576145c06144808b60a001518a6142c6565b6102208b0151909350600160a060020a03161515614623576145e287846142b4565b600854604051919850600160a060020a03169084156108fc029085906000818181858888f1935050505015801561461d573d6000803e3d6000fd5b50614646565b6102208a015160208b0151600854614646929190600160a060020a031686614985565b60008a60c0015111156146ea576146646144808b60c001518a6142c6565b6102208b0151909250600160a060020a031615156146c7576146868683614304565b600854604051919750600160a060020a03169083156108fc029084906000818181858888f193505050501580156146c1573d6000803e3d6000fd5b506146ea565b6102208a015160208c01516008546146ea929190600160a060020a031685614985565b61471d565b6147068a602001518b60e001518c60600151614a4a565b61471d8b602001518b60e001518c60800151614a4a565b6148a3565b6080808b0151908c0151111561473757600080fd5b60018a6101000151600181111561474a57fe5b1415614875576102208a0151600160a060020a0316151561476a57600080fd5b60c0808b0151908c0151111561477f57600080fd5b60008b6060015111156147b85761479d6144808c606001518a6142c6565b94506147b88a61022001518c602001518d60e0015188614985565b60008b6080015111156147f1576147d66144808c608001518a6142c6565b93506147f18a61022001518b602001518d60e0015187614985565b60008b60a0015111156148335761480f6144808c60a001518a6142c6565b6102208b015160208d015160085492955061483392600160a060020a031686614985565b60008b60c00151111561471d576148516144808c60c001518a6142c6565b6102208b015160208c015160085492945061471d92600160a060020a031685614985565b61488c8b602001518c60e001518d60600151614a4a565b6148a38a602001518c60e001518d60800151614a4a565b6102208a0151600160a060020a0316151561495757348611156148c557600080fd5b8960200151600160a060020a03166108fc889081150290604051600060405180830381858888f19350505050158015614902573d6000803e3d6000fd5b5061490d34876142b4565b90506000811115614957578a60200151600160a060020a03166108fc829081150290604051600060405180830381858888f19350505050158015614955573d6000803e3d6000fd5b505b50959998505050505050505050565b60008083600181111561497557fe5b14806116d0575050600010919050565b6000811115614a4457600354604080517f15dacbea000000000000000000000000000000000000000000000000000000008152600160a060020a0387811660048301528681166024830152858116604483015260648201859052915191909216916315dacbea9160848083019260209291908290030181600087803b158015614a0d57600080fd5b505af1158015614a21573d6000803e3d6000fd5b505050506040513d6020811015614a3757600080fd5b50511515614a4457600080fd5b50505050565b600154614a6290600160a060020a0316848484614985565b505050565b604080516102e081018252600080825260208201819052918101829052606081018290526080810182905260a0810182905260c0810182905260e081018290529061010082019081526020016000815260200160008152600060208201819052604090910190815260200160608152602001606081526020016000600160a060020a03168152602001606081526020016000600160a060020a03168152602001600081526020016000815260200160008152602001600081526020016000815250905600a165627a7a723058207e9a824d36a25991dfc72e8948dbd849946eefa85016b6d9e47cf47b97a8c29e0029",
  "source": "/*\n  \n  Exchange contract. This is an outer contract with public or convenience functions and includes no state-modifying functions.\n \n*/\n\npragma solidity 0.4.23;\n\nimport \"./ExchangeCore.sol\";\n\n/**\n * @title Exchange\n * @author Project Wyvern Developers\n */\ncontract Exchange is ExchangeCore {\n\n    /**\n     * @dev Call guardedArrayReplace - library function exposed for testing.\n     */\n    function guardedArrayReplace(bytes array, bytes desired, bytes mask)\n        public\n        pure\n        returns (bytes)\n    {\n        ArrayUtils.guardedArrayReplace(array, desired, mask);\n        return array;\n    }\n\n    /**\n     * Test copy byte array\n     *\n     * @param arrToCopy Array to copy\n     * @return byte array\n     */\n    function testCopy(bytes arrToCopy)\n        public\n        pure\n        returns (bytes)\n    {\n        bytes memory arr = new bytes(arrToCopy.length);\n        uint index;\n        assembly {\n            index := add(arr, 0x20)\n        }\n        ArrayUtils.unsafeWriteBytes(index, arrToCopy);\n        return arr;\n    }\n\n    /**\n     * Test write address to bytes\n     *\n     * @param addr Address to write\n     * @return byte array\n     */\n    function testCopyAddress(address addr)\n        public\n        pure\n        returns (bytes)\n    {\n        bytes memory arr = new bytes(0x14);\n        uint index;\n        assembly {\n            index := add(arr, 0x20)\n        }\n        ArrayUtils.unsafeWriteAddress(index, addr);\n        return arr;\n    }\n\n    /**\n     * @dev Call calculateFinalPrice - library function exposed for testing.\n     */\n    function calculateFinalPrice(SaleKindInterface.Side side, SaleKindInterface.SaleKind saleKind, uint basePrice, uint extra, uint listingTime, uint expirationTime)\n        public\n        view\n        returns (uint)\n    {\n        return SaleKindInterface.calculateFinalPrice(side, saleKind, basePrice, extra, listingTime, expirationTime);\n    }\n\n    /**\n     * @dev Call hashOrder - Solidity ABI encoding limitation workaround, hopefully temporary.\n     */\n    function hashOrder_(\n        address[7] addrs,\n        uint[9] uints,\n        FeeMethod feeMethod,\n        SaleKindInterface.Side side,\n        SaleKindInterface.SaleKind saleKind,\n        AuthenticatedProxy.HowToCall howToCall,\n        bytes calldata,\n        bytes replacementPattern,\n        bytes staticExtradata)\n        public\n        pure\n        returns (bytes32)\n    {\n        return hashOrder(\n          Order(addrs[0], addrs[1], addrs[2], uints[0], uints[1], uints[2], uints[3], addrs[3], feeMethod, side, saleKind, addrs[4], howToCall, calldata, replacementPattern, addrs[5], staticExtradata, ERC20(addrs[6]), uints[4], uints[5], uints[6], uints[7], uints[8])\n        );\n    }\n\n    /**\n     * @dev Call hashToSign - Solidity ABI encoding limitation workaround, hopefully temporary.\n     */\n    function hashToSign_(\n        address[7] addrs,\n        uint[9] uints,\n        FeeMethod feeMethod,\n        SaleKindInterface.Side side,\n        SaleKindInterface.SaleKind saleKind,\n        AuthenticatedProxy.HowToCall howToCall,\n        bytes calldata,\n        bytes replacementPattern,\n        bytes staticExtradata)\n        public\n        pure\n        returns (bytes32)\n    { \n        return hashToSign(\n          Order(addrs[0], addrs[1], addrs[2], uints[0], uints[1], uints[2], uints[3], addrs[3], feeMethod, side, saleKind, addrs[4], howToCall, calldata, replacementPattern, addrs[5], staticExtradata, ERC20(addrs[6]), uints[4], uints[5], uints[6], uints[7], uints[8])\n        );\n    }\n\n    /**\n     * @dev Call validateOrderParameters - Solidity ABI encoding limitation workaround, hopefully temporary.\n     */\n    function validateOrderParameters_ (\n        address[7] addrs,\n        uint[9] uints,\n        FeeMethod feeMethod,\n        SaleKindInterface.Side side,\n        SaleKindInterface.SaleKind saleKind,\n        AuthenticatedProxy.HowToCall howToCall,\n        bytes calldata,\n        bytes replacementPattern,\n        bytes staticExtradata)\n        view\n        public\n        returns (bool)\n    {\n        Order memory order = Order(addrs[0], addrs[1], addrs[2], uints[0], uints[1], uints[2], uints[3], addrs[3], feeMethod, side, saleKind, addrs[4], howToCall, calldata, replacementPattern, addrs[5], staticExtradata, ERC20(addrs[6]), uints[4], uints[5], uints[6], uints[7], uints[8]);\n        return validateOrderParameters(\n          order\n        );\n    }\n\n    /**\n     * @dev Call validateOrder - Solidity ABI encoding limitation workaround, hopefully temporary.\n     */\n    function validateOrder_ (\n        address[7] addrs,\n        uint[9] uints,\n        FeeMethod feeMethod,\n        SaleKindInterface.Side side,\n        SaleKindInterface.SaleKind saleKind,\n        AuthenticatedProxy.HowToCall howToCall,\n        bytes calldata,\n        bytes replacementPattern,\n        bytes staticExtradata,\n        uint8 v,\n        bytes32 r,\n        bytes32 s)\n        view\n        public\n        returns (bool)\n    {\n        Order memory order = Order(addrs[0], addrs[1], addrs[2], uints[0], uints[1], uints[2], uints[3], addrs[3], feeMethod, side, saleKind, addrs[4], howToCall, calldata, replacementPattern, addrs[5], staticExtradata, ERC20(addrs[6]), uints[4], uints[5], uints[6], uints[7], uints[8]);\n        return validateOrder(\n          hashToSign(order),\n          order,\n          Sig(v, r, s)\n        );\n    }\n\n    /**\n     * @dev Call approveOrder - Solidity ABI encoding limitation workaround, hopefully temporary.\n     */\n    function approveOrder_ (\n        address[7] addrs,\n        uint[9] uints,\n        FeeMethod feeMethod,\n        SaleKindInterface.Side side,\n        SaleKindInterface.SaleKind saleKind,\n        AuthenticatedProxy.HowToCall howToCall,\n        bytes calldata,\n        bytes replacementPattern,\n        bytes staticExtradata,\n        bool orderbookInclusionDesired) \n        public\n    {\n        Order memory order = Order(addrs[0], addrs[1], addrs[2], uints[0], uints[1], uints[2], uints[3], addrs[3], feeMethod, side, saleKind, addrs[4], howToCall, calldata, replacementPattern, addrs[5], staticExtradata, ERC20(addrs[6]), uints[4], uints[5], uints[6], uints[7], uints[8]);\n        return approveOrder(order, orderbookInclusionDesired);\n    }\n\n    /**\n     * @dev Call cancelOrder - Solidity ABI encoding limitation workaround, hopefully temporary.\n     */\n    function cancelOrder_(\n        address[7] addrs,\n        uint[9] uints,\n        FeeMethod feeMethod,\n        SaleKindInterface.Side side,\n        SaleKindInterface.SaleKind saleKind,\n        AuthenticatedProxy.HowToCall howToCall,\n        bytes calldata,\n        bytes replacementPattern,\n        bytes staticExtradata,\n        uint8 v,\n        bytes32 r,\n        bytes32 s)\n        public\n    {\n\n        return cancelOrder(\n          Order(addrs[0], addrs[1], addrs[2], uints[0], uints[1], uints[2], uints[3], addrs[3], feeMethod, side, saleKind, addrs[4], howToCall, calldata, replacementPattern, addrs[5], staticExtradata, ERC20(addrs[6]), uints[4], uints[5], uints[6], uints[7], uints[8]),\n          Sig(v, r, s)\n        );\n    }\n\n    /**\n     * @dev Call calculateCurrentPrice - Solidity ABI encoding limitation workaround, hopefully temporary.\n     */\n    function calculateCurrentPrice_(\n        address[7] addrs,\n        uint[9] uints,\n        FeeMethod feeMethod,\n        SaleKindInterface.Side side,\n        SaleKindInterface.SaleKind saleKind,\n        AuthenticatedProxy.HowToCall howToCall,\n        bytes calldata,\n        bytes replacementPattern,\n        bytes staticExtradata)\n        public\n        view\n        returns (uint)\n    {\n        return calculateCurrentPrice(\n          Order(addrs[0], addrs[1], addrs[2], uints[0], uints[1], uints[2], uints[3], addrs[3], feeMethod, side, saleKind, addrs[4], howToCall, calldata, replacementPattern, addrs[5], staticExtradata, ERC20(addrs[6]), uints[4], uints[5], uints[6], uints[7], uints[8])\n        );\n    }\n\n    /**\n     * @dev Call ordersCanMatch - Solidity ABI encoding limitation workaround, hopefully temporary.\n     */\n    function ordersCanMatch_(\n        address[14] addrs,\n        uint[18] uints,\n        uint8[8] feeMethodsSidesKindsHowToCalls,\n        bytes calldataBuy,\n        bytes calldataSell,\n        bytes replacementPatternBuy,\n        bytes replacementPatternSell,\n        bytes staticExtradataBuy,\n        bytes staticExtradataSell)\n        public\n        view\n        returns (bool)\n    {\n        Order memory buy = Order(addrs[0], addrs[1], addrs[2], uints[0], uints[1], uints[2], uints[3], addrs[3], FeeMethod(feeMethodsSidesKindsHowToCalls[0]), SaleKindInterface.Side(feeMethodsSidesKindsHowToCalls[1]), SaleKindInterface.SaleKind(feeMethodsSidesKindsHowToCalls[2]), addrs[4], AuthenticatedProxy.HowToCall(feeMethodsSidesKindsHowToCalls[3]), calldataBuy, replacementPatternBuy, addrs[5], staticExtradataBuy, ERC20(addrs[6]), uints[4], uints[5], uints[6], uints[7], uints[8]);\n        Order memory sell = Order(addrs[7], addrs[8], addrs[9], uints[9], uints[10], uints[11], uints[12], addrs[10], FeeMethod(feeMethodsSidesKindsHowToCalls[4]), SaleKindInterface.Side(feeMethodsSidesKindsHowToCalls[5]), SaleKindInterface.SaleKind(feeMethodsSidesKindsHowToCalls[6]), addrs[11], AuthenticatedProxy.HowToCall(feeMethodsSidesKindsHowToCalls[7]), calldataSell, replacementPatternSell, addrs[12], staticExtradataSell, ERC20(addrs[13]), uints[13], uints[14], uints[15], uints[16], uints[17]);\n        return ordersCanMatch(\n          buy,\n          sell\n        );\n    }\n\n    /**\n     * @dev Return whether or not two orders' calldata specifications can match\n     * @param buyCalldata Buy-side order calldata\n     * @param buyReplacementPattern Buy-side order calldata replacement mask\n     * @param sellCalldata Sell-side order calldata\n     * @param sellReplacementPattern Sell-side order calldata replacement mask\n     * @return Whether the orders' calldata can be matched\n     */\n    function orderCalldataCanMatch(bytes buyCalldata, bytes buyReplacementPattern, bytes sellCalldata, bytes sellReplacementPattern)\n        public\n        pure\n        returns (bool)\n    {\n        if (buyReplacementPattern.length > 0) {\n          ArrayUtils.guardedArrayReplace(buyCalldata, sellCalldata, buyReplacementPattern);\n        }\n        if (sellReplacementPattern.length > 0) {\n          ArrayUtils.guardedArrayReplace(sellCalldata, buyCalldata, sellReplacementPattern);\n        }\n        return ArrayUtils.arrayEq(buyCalldata, sellCalldata);\n    }\n\n    /**\n     * @dev Call calculateMatchPrice - Solidity ABI encoding limitation workaround, hopefully temporary.\n     */\n    function calculateMatchPrice_(\n        address[14] addrs,\n        uint[18] uints,\n        uint8[8] feeMethodsSidesKindsHowToCalls,\n        bytes calldataBuy,\n        bytes calldataSell,\n        bytes replacementPatternBuy,\n        bytes replacementPatternSell,\n        bytes staticExtradataBuy,\n        bytes staticExtradataSell)\n        public\n        view\n        returns (uint)\n    {\n        Order memory buy = Order(addrs[0], addrs[1], addrs[2], uints[0], uints[1], uints[2], uints[3], addrs[3], FeeMethod(feeMethodsSidesKindsHowToCalls[0]), SaleKindInterface.Side(feeMethodsSidesKindsHowToCalls[1]), SaleKindInterface.SaleKind(feeMethodsSidesKindsHowToCalls[2]), addrs[4], AuthenticatedProxy.HowToCall(feeMethodsSidesKindsHowToCalls[3]), calldataBuy, replacementPatternBuy, addrs[5], staticExtradataBuy, ERC20(addrs[6]), uints[4], uints[5], uints[6], uints[7], uints[8]);\n        Order memory sell = Order(addrs[7], addrs[8], addrs[9], uints[9], uints[10], uints[11], uints[12], addrs[10], FeeMethod(feeMethodsSidesKindsHowToCalls[4]), SaleKindInterface.Side(feeMethodsSidesKindsHowToCalls[5]), SaleKindInterface.SaleKind(feeMethodsSidesKindsHowToCalls[6]), addrs[11], AuthenticatedProxy.HowToCall(feeMethodsSidesKindsHowToCalls[7]), calldataSell, replacementPatternSell, addrs[12], staticExtradataSell, ERC20(addrs[13]), uints[13], uints[14], uints[15], uints[16], uints[17]);\n        return calculateMatchPrice(\n          buy,\n          sell\n        );\n    }\n\n    /**\n     * @dev Call atomicMatch - Solidity ABI encoding limitation workaround, hopefully temporary.\n     */\n    function atomicMatch_(\n        address[14] addrs,\n        uint[18] uints,\n        uint8[8] feeMethodsSidesKindsHowToCalls,\n        bytes calldataBuy,\n        bytes calldataSell,\n        bytes replacementPatternBuy,\n        bytes replacementPatternSell,\n        bytes staticExtradataBuy,\n        bytes staticExtradataSell,\n        uint8[2] vs,\n        bytes32[5] rssMetadata)\n        public\n        payable\n    {\n\n        return atomicMatch(\n          Order(addrs[0], addrs[1], addrs[2], uints[0], uints[1], uints[2], uints[3], addrs[3], FeeMethod(feeMethodsSidesKindsHowToCalls[0]), SaleKindInterface.Side(feeMethodsSidesKindsHowToCalls[1]), SaleKindInterface.SaleKind(feeMethodsSidesKindsHowToCalls[2]), addrs[4], AuthenticatedProxy.HowToCall(feeMethodsSidesKindsHowToCalls[3]), calldataBuy, replacementPatternBuy, addrs[5], staticExtradataBuy, ERC20(addrs[6]), uints[4], uints[5], uints[6], uints[7], uints[8]),\n          Sig(vs[0], rssMetadata[0], rssMetadata[1]),\n          Order(addrs[7], addrs[8], addrs[9], uints[9], uints[10], uints[11], uints[12], addrs[10], FeeMethod(feeMethodsSidesKindsHowToCalls[4]), SaleKindInterface.Side(feeMethodsSidesKindsHowToCalls[5]), SaleKindInterface.SaleKind(feeMethodsSidesKindsHowToCalls[6]), addrs[11], AuthenticatedProxy.HowToCall(feeMethodsSidesKindsHowToCalls[7]), calldataSell, replacementPatternSell, addrs[12], staticExtradataSell, ERC20(addrs[13]), uints[13], uints[14], uints[15], uints[16], uints[17]),\n          Sig(vs[1], rssMetadata[2], rssMetadata[3]),\n          rssMetadata[4]\n        );\n    }\n\n}\n",
  "sourcePath": "/Users/keyang/Workspace/private-chain/truffle-learn/wyvern-ethereum-demo/contracts/exchange/Exchange.sol",
  "compiler": {
    "name": "solc",
    "version": "0.4.23+commit.124ca40d.Emscripten.clang"
  },
  "schemaVersion": "3.4.4",
  "updatedAt": "2022-05-26T02:18:50.415Z",
  "devdoc": {
    "author": "Project Wyvern Developers",
    "methods": {
      "approveOrder_(address[7],uint256[9],uint8,uint8,uint8,uint8,bytes,bytes,bytes,bool)": {
        "details": "Call approveOrder - Solidity ABI encoding limitation workaround, hopefully temporary."
      },
      "atomicMatch_(address[14],uint256[18],uint8[8],bytes,bytes,bytes,bytes,bytes,bytes,uint8[2],bytes32[5])": {
        "details": "Call atomicMatch - Solidity ABI encoding limitation workaround, hopefully temporary."
      },
      "calculateCurrentPrice_(address[7],uint256[9],uint8,uint8,uint8,uint8,bytes,bytes,bytes)": {
        "details": "Call calculateCurrentPrice - Solidity ABI encoding limitation workaround, hopefully temporary."
      },
      "calculateFinalPrice(uint8,uint8,uint256,uint256,uint256,uint256)": {
        "details": "Call calculateFinalPrice - library function exposed for testing."
      },
      "calculateMatchPrice_(address[14],uint256[18],uint8[8],bytes,bytes,bytes,bytes,bytes,bytes)": {
        "details": "Call calculateMatchPrice - Solidity ABI encoding limitation workaround, hopefully temporary."
      },
      "cancelOrder_(address[7],uint256[9],uint8,uint8,uint8,uint8,bytes,bytes,bytes,uint8,bytes32,bytes32)": {
        "details": "Call cancelOrder - Solidity ABI encoding limitation workaround, hopefully temporary."
      },
      "changeMinimumMakerProtocolFee(uint256)": {
        "details": "Change the minimum maker fee paid to the protocol (owner only)",
        "params": {
          "newMinimumMakerProtocolFee": "New fee to set in basis points"
        }
      },
      "changeMinimumTakerProtocolFee(uint256)": {
        "details": "Change the minimum taker fee paid to the protocol (owner only)",
        "params": {
          "newMinimumTakerProtocolFee": "New fee to set in basis points"
        }
      },
      "changeProtocolFeeRecipient(address)": {
        "details": "Change the protocol fee recipient (owner only)",
        "params": {
          "newProtocolFeeRecipient": "New protocol fee recipient address"
        }
      },
      "guardedArrayReplace(bytes,bytes,bytes)": {
        "details": "Call guardedArrayReplace - library function exposed for testing."
      },
      "hashOrder_(address[7],uint256[9],uint8,uint8,uint8,uint8,bytes,bytes,bytes)": {
        "details": "Call hashOrder - Solidity ABI encoding limitation workaround, hopefully temporary."
      },
      "hashToSign_(address[7],uint256[9],uint8,uint8,uint8,uint8,bytes,bytes,bytes)": {
        "details": "Call hashToSign - Solidity ABI encoding limitation workaround, hopefully temporary."
      },
      "orderCalldataCanMatch(bytes,bytes,bytes,bytes)": {
        "details": "Return whether or not two orders' calldata specifications can match",
        "params": {
          "buyCalldata": "Buy-side order calldata",
          "buyReplacementPattern": "Buy-side order calldata replacement mask",
          "sellCalldata": "Sell-side order calldata",
          "sellReplacementPattern": "Sell-side order calldata replacement mask"
        },
        "return": "Whether the orders' calldata can be matched"
      },
      "ordersCanMatch_(address[14],uint256[18],uint8[8],bytes,bytes,bytes,bytes,bytes,bytes)": {
        "details": "Call ordersCanMatch - Solidity ABI encoding limitation workaround, hopefully temporary."
      },
      "staticCall(address,bytes,bytes)": {
        "details": "Execute a STATICCALL (introduced with Ethereum Metropolis, non-state-modifying external call)",
        "params": {
          "calldata": "Calldata (appended to extradata)",
          "extradata": "Base data for STATICCALL (probably function selector and argument encoding)",
          "target": "Contract to call"
        },
        "return": "The result of the call (success or failure)"
      },
      "testCopy(bytes)": {
        "params": {
          "arrToCopy": "Array to copy"
        },
        "return": "byte array"
      },
      "testCopyAddress(address)": {
        "params": {
          "addr": "Address to write"
        },
        "return": "byte array"
      },
      "transferOwnership(address)": {
        "details": "Allows the current owner to transfer control of the contract to a newOwner.",
        "params": {
          "newOwner": "The address to transfer ownership to."
        }
      },
      "validateOrderParameters_(address[7],uint256[9],uint8,uint8,uint8,uint8,bytes,bytes,bytes)": {
        "details": "Call validateOrderParameters - Solidity ABI encoding limitation workaround, hopefully temporary."
      },
      "validateOrder_(address[7],uint256[9],uint8,uint8,uint8,uint8,bytes,bytes,bytes,uint8,bytes32,bytes32)": {
        "details": "Call validateOrder - Solidity ABI encoding limitation workaround, hopefully temporary."
      }
    },
    "title": "Exchange"
  },
  "userdoc": {
    "methods": {
      "testCopy(bytes)": {
        "notice": "Test copy byte array"
      },
      "testCopyAddress(address)": {
        "notice": "Test write address to bytes"
      }
    }
  }
}