{
  "contractName": "WyvernDAO",
  "abi": [
    {
      "constant": true,
      "inputs": [
        {
          "name": "",
          "type": "uint256"
        }
      ],
      "name": "proposals",
      "outputs": [
        {
          "name": "recipient",
          "type": "address"
        },
        {
          "name": "amount",
          "type": "uint256"
        },
        {
          "name": "metadataHash",
          "type": "bytes"
        },
        {
          "name": "timeCreated",
          "type": "uint256"
        },
        {
          "name": "votingDeadline",
          "type": "uint256"
        },
        {
          "name": "finalized",
          "type": "bool"
        },
        {
          "name": "proposalPassed",
          "type": "bool"
        },
        {
          "name": "numberOfVotes",
          "type": "uint256"
        },
        {
          "name": "proposalHash",
          "type": "bytes32"
        }
      ],
      "payable": false,
      "stateMutability": "view",
      "type": "function"
    },
    {
      "constant": true,
      "inputs": [
        {
          "name": "",
          "type": "address"
        }
      ],
      "name": "delegatesByDelegator",
      "outputs": [
        {
          "name": "",
          "type": "address"
        }
      ],
      "payable": false,
      "stateMutability": "view",
      "type": "function"
    },
    {
      "constant": true,
      "inputs": [],
      "name": "name",
      "outputs": [
        {
          "name": "",
          "type": "string"
        }
      ],
      "payable": false,
      "stateMutability": "view",
      "type": "function"
    },
    {
      "constant": true,
      "inputs": [],
      "name": "REQUIRED_SHARES_TO_BE_BOARD_MEMBER",
      "outputs": [
        {
          "name": "",
          "type": "uint256"
        }
      ],
      "payable": false,
      "stateMutability": "view",
      "type": "function"
    },
    {
      "constant": true,
      "inputs": [
        {
          "name": "",
          "type": "address"
        }
      ],
      "name": "lockedDelegatingTokens",
      "outputs": [
        {
          "name": "",
          "type": "uint256"
        }
      ],
      "payable": false,
      "stateMutability": "view",
      "type": "function"
    },
    {
      "constant": true,
      "inputs": [
        {
          "name": "proposalNumber",
          "type": "uint256"
        }
      ],
      "name": "countVotes",
      "outputs": [
        {
          "name": "yea",
          "type": "uint256"
        },
        {
          "name": "nay",
          "type": "uint256"
        },
        {
          "name": "quorum",
          "type": "uint256"
        }
      ],
      "payable": false,
      "stateMutability": "view",
      "type": "function"
    },
    {
      "constant": false,
      "inputs": [
        {
          "name": "proposalNumber",
          "type": "uint256"
        },
        {
          "name": "transactionBytecode",
          "type": "bytes"
        }
      ],
      "name": "executeProposal",
      "outputs": [],
      "payable": false,
      "stateMutability": "nonpayable",
      "type": "function"
    },
    {
      "constant": true,
      "inputs": [],
      "name": "sharesTokenAddress",
      "outputs": [
        {
          "name": "",
          "type": "address"
        }
      ],
      "payable": false,
      "stateMutability": "view",
      "type": "function"
    },
    {
      "constant": true,
      "inputs": [
        {
          "name": "",
          "type": "address"
        }
      ],
      "name": "delegatedAmountsByDelegate",
      "outputs": [
        {
          "name": "",
          "type": "uint256"
        }
      ],
      "payable": false,
      "stateMutability": "view",
      "type": "function"
    },
    {
      "constant": true,
      "inputs": [],
      "name": "numProposals",
      "outputs": [
        {
          "name": "",
          "type": "uint256"
        }
      ],
      "payable": false,
      "stateMutability": "view",
      "type": "function"
    },
    {
      "constant": true,
      "inputs": [
        {
          "name": "proposalNumber",
          "type": "uint256"
        },
        {
          "name": "shareholder",
          "type": "address"
        }
      ],
      "name": "hasVoted",
      "outputs": [
        {
          "name": "",
          "type": "bool"
        }
      ],
      "payable": false,
      "stateMutability": "view",
      "type": "function"
    },
    {
      "constant": true,
      "inputs": [],
      "name": "TOKEN_DECIMALS",
      "outputs": [
        {
          "name": "",
          "type": "uint256"
        }
      ],
      "payable": false,
      "stateMutability": "view",
      "type": "function"
    },
    {
      "constant": false,
      "inputs": [
        {
          "name": "tokensToLock",
          "type": "uint256"
        },
        {
          "name": "delegate",
          "type": "address"
        }
      ],
      "name": "setDelegateAndLockTokens",
      "outputs": [],
      "payable": false,
      "stateMutability": "nonpayable",
      "type": "function"
    },
    {
      "constant": false,
      "inputs": [],
      "name": "clearDelegateAndUnlockTokens",
      "outputs": [
        {
          "name": "lockedTokens",
          "type": "uint256"
        }
      ],
      "payable": false,
      "stateMutability": "nonpayable",
      "type": "function"
    },
    {
      "constant": true,
      "inputs": [],
      "name": "debatingPeriodInMinutes",
      "outputs": [
        {
          "name": "",
          "type": "uint256"
        }
      ],
      "payable": false,
      "stateMutability": "view",
      "type": "function"
    },
    {
      "constant": false,
      "inputs": [
        {
          "name": "minimumSharesToPassAVote",
          "type": "uint256"
        },
        {
          "name": "minutesForDebate",
          "type": "uint256"
        },
        {
          "name": "sharesToBeBoardMember",
          "type": "uint256"
        }
      ],
      "name": "changeVotingRules",
      "outputs": [],
      "payable": false,
      "stateMutability": "nonpayable",
      "type": "function"
    },
    {
      "constant": true,
      "inputs": [],
      "name": "minimumQuorum",
      "outputs": [
        {
          "name": "",
          "type": "uint256"
        }
      ],
      "payable": false,
      "stateMutability": "view",
      "type": "function"
    },
    {
      "constant": false,
      "inputs": [
        {
          "name": "from",
          "type": "address"
        },
        {
          "name": "value",
          "type": "uint256"
        },
        {
          "name": "token",
          "type": "address"
        },
        {
          "name": "extraData",
          "type": "bytes"
        }
      ],
      "name": "receiveApproval",
      "outputs": [],
      "payable": false,
      "stateMutability": "nonpayable",
      "type": "function"
    },
    {
      "constant": true,
      "inputs": [],
      "name": "tokenLocker",
      "outputs": [
        {
          "name": "",
          "type": "address"
        }
      ],
      "payable": false,
      "stateMutability": "view",
      "type": "function"
    },
    {
      "constant": true,
      "inputs": [],
      "name": "MINIMUM_QUORUM",
      "outputs": [
        {
          "name": "",
          "type": "uint256"
        }
      ],
      "payable": false,
      "stateMutability": "view",
      "type": "function"
    },
    {
      "constant": true,
      "inputs": [],
      "name": "requiredSharesToBeBoardMember",
      "outputs": [
        {
          "name": "",
          "type": "uint256"
        }
      ],
      "payable": false,
      "stateMutability": "view",
      "type": "function"
    },
    {
      "constant": false,
      "inputs": [
        {
          "name": "proposalNumber",
          "type": "uint256"
        },
        {
          "name": "supportsProposal",
          "type": "bool"
        }
      ],
      "name": "vote",
      "outputs": [
        {
          "name": "voteID",
          "type": "uint256"
        }
      ],
      "payable": false,
      "stateMutability": "nonpayable",
      "type": "function"
    },
    {
      "constant": false,
      "inputs": [
        {
          "name": "beneficiary",
          "type": "address"
        },
        {
          "name": "weiAmount",
          "type": "uint256"
        },
        {
          "name": "jobMetadataHash",
          "type": "bytes"
        },
        {
          "name": "transactionBytecode",
          "type": "bytes"
        }
      ],
      "name": "newProposal",
      "outputs": [
        {
          "name": "proposalID",
          "type": "uint256"
        }
      ],
      "payable": false,
      "stateMutability": "nonpayable",
      "type": "function"
    },
    {
      "constant": true,
      "inputs": [],
      "name": "DEBATE_PERIOD_MINUTES",
      "outputs": [
        {
          "name": "",
          "type": "uint256"
        }
      ],
      "payable": false,
      "stateMutability": "view",
      "type": "function"
    },
    {
      "constant": true,
      "inputs": [
        {
          "name": "proposalNumber",
          "type": "uint256"
        },
        {
          "name": "beneficiary",
          "type": "address"
        },
        {
          "name": "weiAmount",
          "type": "uint256"
        },
        {
          "name": "transactionBytecode",
          "type": "bytes"
        }
      ],
      "name": "checkProposalCode",
      "outputs": [
        {
          "name": "codeChecksOut",
          "type": "bool"
        }
      ],
      "payable": false,
      "stateMutability": "view",
      "type": "function"
    },
    {
      "constant": true,
      "inputs": [],
      "name": "totalLockedTokens",
      "outputs": [
        {
          "name": "",
          "type": "uint256"
        }
      ],
      "payable": false,
      "stateMutability": "view",
      "type": "function"
    },
    {
      "inputs": [
        {
          "name": "sharesAddress",
          "type": "address"
        }
      ],
      "payable": false,
      "stateMutability": "nonpayable",
      "type": "constructor"
    },
    {
      "payable": true,
      "stateMutability": "payable",
      "type": "fallback"
    },
    {
      "anonymous": false,
      "inputs": [
        {
          "indexed": false,
          "name": "proposalID",
          "type": "uint256"
        },
        {
          "indexed": false,
          "name": "recipient",
          "type": "address"
        },
        {
          "indexed": false,
          "name": "amount",
          "type": "uint256"
        },
        {
          "indexed": false,
          "name": "metadataHash",
          "type": "bytes"
        }
      ],
      "name": "ProposalAdded",
      "type": "event"
    },
    {
      "anonymous": false,
      "inputs": [
        {
          "indexed": false,
          "name": "proposalID",
          "type": "uint256"
        },
        {
          "indexed": false,
          "name": "position",
          "type": "bool"
        },
        {
          "indexed": false,
          "name": "voter",
          "type": "address"
        }
      ],
      "name": "Voted",
      "type": "event"
    },
    {
      "anonymous": false,
      "inputs": [
        {
          "indexed": false,
          "name": "proposalID",
          "type": "uint256"
        },
        {
          "indexed": false,
          "name": "yea",
          "type": "uint256"
        },
        {
          "indexed": false,
          "name": "nay",
          "type": "uint256"
        },
        {
          "indexed": false,
          "name": "quorum",
          "type": "uint256"
        },
        {
          "indexed": false,
          "name": "active",
          "type": "bool"
        }
      ],
      "name": "ProposalTallied",
      "type": "event"
    },
    {
      "anonymous": false,
      "inputs": [
        {
          "indexed": false,
          "name": "newMinimumQuorum",
          "type": "uint256"
        },
        {
          "indexed": false,
          "name": "newDebatingPeriodInMinutes",
          "type": "uint256"
        },
        {
          "indexed": false,
          "name": "newSharesTokenAddress",
          "type": "address"
        }
      ],
      "name": "ChangeOfRules",
      "type": "event"
    },
    {
      "anonymous": false,
      "inputs": [
        {
          "indexed": true,
          "name": "delegator",
          "type": "address"
        },
        {
          "indexed": false,
          "name": "numberOfTokens",
          "type": "uint256"
        },
        {
          "indexed": true,
          "name": "delegate",
          "type": "address"
        }
      ],
      "name": "TokensDelegated",
      "type": "event"
    },
    {
      "anonymous": false,
      "inputs": [
        {
          "indexed": true,
          "name": "delegator",
          "type": "address"
        },
        {
          "indexed": false,
          "name": "numberOfTokens",
          "type": "uint256"
        },
        {
          "indexed": true,
          "name": "delegate",
          "type": "address"
        }
      ],
      "name": "TokensUndelegated",
      "type": "event"
    },
    {
      "anonymous": false,
      "inputs": [
        {
          "indexed": true,
          "name": "sender",
          "type": "address"
        },
        {
          "indexed": false,
          "name": "amount",
          "type": "uint256"
        }
      ],
      "name": "ReceivedEther",
      "type": "event"
    },
    {
      "anonymous": false,
      "inputs": [
        {
          "indexed": true,
          "name": "from",
          "type": "address"
        },
        {
          "indexed": false,
          "name": "value",
          "type": "uint256"
        },
        {
          "indexed": true,
          "name": "token",
          "type": "address"
        },
        {
          "indexed": false,
          "name": "extraData",
          "type": "bytes"
        }
      ],
      "name": "ReceivedTokens",
      "type": "event"
    }
  ],
  "bytecode": "0x608060405234801561001057600080fd5b50604051602080611fc8833981016040525160048054600160a060020a031916600160a060020a038316179055686c6b935b8bbd400000600955692a5a058fc295ed0000006000556110e0600155806100676100bb565b600160a060020a03909116815260405190819003602001906000f080158015610094573d6000803e3d6000fd5b50600a8054600160a060020a031916600160a060020a0392909216919091179055506100cb565b60405161028c80611d3c83390190565b611c62806100da6000396000f3006080604052600436106101535763ffffffff7c0100000000000000000000000000000000000000000000000000000000600035041663013cf08b8114610194578063064cc7a71461027257806306fdde03146102af57806306fde1691461033957806313f47f24146103605780631840f0ca14610381578063237e9492146103b757806327ebcf0e146104175780633fb3ec281461042c578063400e39491461044d57806343859632146104625780635b7f415c1461049a5780635fa7df6b146104af578063645bd436146104d357806369bd3436146104e85780636e676b69146104fd5780638160f0b51461051b5780638f4ffcb114610530578063a80bf3e6146105a0578063b159beac146105b5578063b94fa03f146105ca578063c9d27afe146105df578063dbc45228146105fc578063ecc46d1b146106a3578063eceb2945146106b8578063f5c476f914610727575b604080513481529051600160a060020a033316917fa419615bc8fda4c87663805ee2a3597a6d71c1d476911d9892f340d965bc7bf1919081900360200190a2005b3480156101a057600080fd5b506101ac60043561073c565b60408051600160a060020a038b16815260208082018b9052606082018990526080820188905286151560a083015285151560c083015260e0820185905261010082018490526101209282018381528a519383019390935289519192916101408401918b019080838360005b8381101561022f578181015183820152602001610217565b50505050905090810190601f16801561025c5780820380516001836020036101000a031916815260200191505b509a505050505050505050505060405180910390f35b34801561027e57600080fd5b50610293600160a060020a0360043516610831565b60408051600160a060020a039092168252519081900360200190f35b3480156102bb57600080fd5b506102c461084c565b6040805160208082528351818301528351919283929083019185019080838360005b838110156102fe5781810151838201526020016102e6565b50505050905090810190601f16801561032b5780820380516001836020036101000a031916815260200191505b509250505060405180910390f35b34801561034557600080fd5b5061034e610883565b60408051918252519081900360200190f35b34801561036c57600080fd5b5061034e600160a060020a0360043516610890565b34801561038d57600080fd5b506103996004356108a2565b60408051938452602084019290925282820152519081900360600190f35b3480156103c357600080fd5b5060408051602060046024803582810135601f8101859004850286018501909652858552610415958335953695604494919390910191908190840183828082843750949750610a039650505050505050565b005b34801561042357600080fd5b50610293610c56565b34801561043857600080fd5b5061034e600160a060020a0360043516610c65565b34801561045957600080fd5b5061034e610c77565b34801561046e57600080fd5b50610486600435600160a060020a0360243516610c7d565b604080519115158252519081900360200190f35b3480156104a657600080fd5b5061034e610cc5565b3480156104bb57600080fd5b50610415600435600160a060020a0360243516610cca565b3480156104df57600080fd5b5061034e610fb7565b3480156104f457600080fd5b5061034e61121a565b34801561050957600080fd5b50610415600435602435604435611220565b34801561052757600080fd5b5061034e6112ab565b34801561053c57600080fd5b50604080516020601f60643560048181013592830184900484028501840190955281845261041594600160a060020a038135811695602480359660443590931695369560849492019181908401838280828437509497506112b19650505050505050565b3480156105ac57600080fd5b50610293611418565b3480156105c157600080fd5b5061034e611427565b3480156105d657600080fd5b5061034e611435565b3480156105eb57600080fd5b5061034e600435602435151561143b565b34801561060857600080fd5b50604080516020600460443581810135601f810184900484028501840190955284845261034e948235600160a060020a031694602480359536959460649492019190819084018382808284375050604080516020601f89358b018035918201839004830284018301909452808352979a99988101979196509182019450925082915084018382808284375094975061166f9650505050505050565b3480156106af57600080fd5b5061034e61193f565b3480156106c457600080fd5b50604080516020601f60643560048181013592830184900484028501840190955281845261048694803594600160a060020a0360248035919091169560443595369560849493019181908401838280828437509497506119459650505050505050565b34801561073357600080fd5b5061034e611a07565b600280548290811061074a57fe5b6000918252602091829020600a91909102018054600180830154600280850180546040805161010096831615969096026000190190911692909204601f8101889004880285018801909252818452600160a060020a03909416965090949192918301828280156107fb5780601f106107d0576101008083540402835291602001916107fb565b820191906000526020600020905b8154815290600101906020018083116107de57829003601f168201915b5050505060038301546004840154600585015460068601546007909601549495929491935060ff80821693610100909204169189565b600560205260009081526040902054600160a060020a031681565b60408051808201909152601281527f50726f6a6563742057797665726e2044414f0000000000000000000000000000602082015281565b686c6b935b8bbd40000081565b60066020526000908152604090205481565b60008060008060008060006002888154811015156108bc57fe5b90600052602060002090600a02019350600096506000955060009450600092505b60088401548310156109f857600884018054849081106108f957fe5b60009182526020808320600480549390910180546040805160e060020a6370a08231028152600160a060020a03610100909304831694810194909452519197506109b6959416936370a0823193602480850194919392918390030190829087803b15801561096657600080fd5b505af115801561097a573d6000803e3d6000fd5b505050506040513d602081101561099057600080fd5b505183546101009004600160a060020a0316600090815260076020526040902054611a0d565b90506109c28582611a0d565b825490955060ff16156109e0576109d98782611a0d565b96506109ed565b6109ea8682611a0d565b95505b8260010192506108dd565b505050509193909250565b60008060008030600160a060020a031633600160a060020a031614151515610a2a57600080fd5b6002805487908110610a3857fe5b90600052602060002090600a0201935083600401544210158015610a615750600584015460ff16155b8015610aff5750835460018501546040516c01000000000000000000000000600160a060020a039093169283028152601481018290528751889190603482019060208401908083835b60208310610ac95780518252601f199092019160209182019101610aaa565b5181516020939093036101000a6000190180199091169216919091179052604051920182900390912060078a0154149450505050505b1515610b0a57600080fd5b610b13866108a2565b6000549295509093509150811015610b2a57600080fd5b60058401805460ff1916600117905581831115610be45760058401805461ff001916610100179055835460018501546040518751600160a060020a03909316928891908190602084019080838360005b83811015610b92578181015183820152602001610b7a565b50505050905090810190601f168015610bbf5780820380516001836020036101000a031916815260200191505b5091505060006040518083038185875af1925050501515610bdf57600080fd5b610bf2565b60058401805461ff00191690555b600584015460408051888152602081018690528082018590526060810184905261010090920460ff1615156080830152517f748f0810c68633063bb13f3c71e10cd1889925b3721d6e567114d0632574a3969160a0908290030190a1505050505050565b600454600160a060020a031681565b60076020526000908152604090205481565b60035481565b600080600284815481101515610c8f57fe5b60009182526020808320600160a060020a03969096168352600a919091029094016009019093525050604090205460ff16919050565b601281565b600480546040805160e060020a6370a08231028152600160a060020a03338116948201949094529051600093909216916370a082319160248082019260209290919082900301818787803b158015610d2157600080fd5b505af1158015610d35573d6000803e3d6000fd5b505050506040513d6020811015610d4b57600080fd5b505111610d5757600080fd5b600160a060020a033381166000908152600560205260409020541615610d7c57600080fd5b30600160a060020a031633600160a060020a031614151515610d9d57600080fd5b600160a060020a0333811660009081526006602090815260408083208690559284168252600790522054610dd19083611a0d565b600160a060020a038216600090815260076020526040902055600854610df79083611a0d565b60085533600160a060020a039081166000818152600560209081526040808320805473ffffffffffffffffffffffffffffffffffffffff191687871617905560048054600a5483517f23b872dd00000000000000000000000000000000000000000000000000000000815292830196909652948616602482015260448101889052905193909416936323b872dd9360648083019491928390030190829087803b158015610ea357600080fd5b505af1158015610eb7573d6000803e3d6000fd5b505050506040513d6020811015610ecd57600080fd5b50511515610eda57600080fd5b60085460048054600a546040805160e060020a6370a08231028152600160a060020a0392831694810194909452519116916370a082319160248083019260209291908290030181600087803b158015610f3257600080fd5b505af1158015610f46573d6000803e3d6000fd5b505050506040513d6020811015610f5c57600080fd5b505114610f6857600080fd5b80600160a060020a031633600160a060020a03167f57593c23286b632d1ba413b24ecae252f34f6b81fdff1022dc7ac0d78cde56b7846040518082815260200191505060405180910390a35050565b600160a060020a0333811660009081526005602052604081205490918291161515610fe157600080fd5b30600160a060020a031633600160a060020a03161415151561100257600080fd5b5050600160a060020a033381166000908152600560209081526040808320546006835281842080549085905594168084526007909252909120546110469083611a20565b600160a060020a03821660009081526007602052604090205560085461106c9083611a20565b600855600160a060020a033381166000818152600560209081526040808320805473ffffffffffffffffffffffffffffffffffffffff19169055600a5481517fa9059cbb000000000000000000000000000000000000000000000000000000008152600481019590955260248501889052905194169363a9059cbb93604480820194918390030190829087803b15801561110557600080fd5b505af1158015611119573d6000803e3d6000fd5b505050506040513d602081101561112f57600080fd5b5051151561113c57600080fd5b60085460048054600a546040805160e060020a6370a08231028152600160a060020a0392831694810194909452519116916370a082319160248083019260209291908290030181600087803b15801561119457600080fd5b505af11580156111a8573d6000803e3d6000fd5b505050506040513d60208110156111be57600080fd5b5051146111ca57600080fd5b80600160a060020a031633600160a060020a03167fccc924ef18d5fcabbf624302b6a02f9014c9b3371994eacc0cec2c107f2503e4846040518082815260200191505060405180910390a35b5090565b60015481565b30600160a060020a031633600160a060020a031614151561124057600080fd5b82151561124c57600192505b6000839055600182905560098190556004546040805185815260208101859052600160a060020a0390921682820152517f68259880819f96f54b67d672fefc666565de06099c91b57a689a42073ba090c99181900360600190a1505050565b60005481565b604080517f23b872dd000000000000000000000000000000000000000000000000000000008152600160a060020a038681166004830152308116602483015260448201869052915184928316916323b872dd9160648083019260209291908290030181600087803b15801561132557600080fd5b505af1158015611339573d6000803e3d6000fd5b505050506040513d602081101561134f57600080fd5b5051151561135c57600080fd5b82600160a060020a031685600160a060020a03167fd65b48fd35864b3528d38e44760be5553248f89bf3ff6b06cca57817cc2650bf86856040518083815260200180602001828103825283818151815260200191508051906020019080838360005b838110156113d65781810151838201526020016113be565b50505050905090810190601f1680156114035780820380516001836020036101000a031916815260200191505b50935050505060405180910390a35050505050565b600a54600160a060020a031681565b692a5a058fc295ed00000081565b60095481565b6000806000600460009054906101000a9004600160a060020a0316600160a060020a03166370a08231336040518263ffffffff167c01000000000000000000000000000000000000000000000000000000000281526004018082600160a060020a0316600160a060020a03168152602001915050602060405180830381600087803b1580156114c957600080fd5b505af11580156114dd573d6000803e3d6000fd5b505050506040513d60208110156114f357600080fd5b5051116114ff57600080fd5b30600160a060020a031633600160a060020a03161415151561152057600080fd5b600280548590811061152e57fe5b60009182526020808320600160a060020a03331684526009600a90930201918201905260409091205490915060ff1615156001141561156c57600080fd5b600881018054906115809060018301611a32565b91506040805190810160405280841515815260200133600160a060020a031681525081600801838154811015156115b357fe5b600091825260208083208451920180549482015160ff199586169315159390931774ffffffffffffffffffffffffffffffffffffffff001916610100600160a060020a03948516021790553390911680835260098501825260409283902080549094166001908117909455928501600685015581518781528615159181019190915280820192909252517f86abfce99b7dd908bec0169288797f85049ec73cbe046ed9de818fab3a497ae0916060908290030190a15092915050565b600954600480546040805160e060020a6370a08231028152600160a060020a033381169482019490945290516000948594909316916370a0823191602480830192602092919082900301818887803b1580156116ca57600080fd5b505af11580156116de573d6000803e3d6000fd5b505050506040513d60208110156116f457600080fd5b5051101561170157600080fd5b30600160a060020a031633600160a060020a03161415151561172257600080fd5b600a54600160a060020a038781169116141561173d57600080fd5b600280549061174f9060018301611a5b565b915060028281548110151561176057fe5b6000918252602091829020600a9190910201805473ffffffffffffffffffffffffffffffffffffffff1916600160a060020a0389161781556001810187905585519092506117b691600284019190870190611a87565b508585846040518084600160a060020a0316600160a060020a03166c0100000000000000000000000002815260140183815260200182805190602001908083835b602083106118165780518252601f1990920191602091820191016117f7565b51815160209384036101000a60001901801990921691161790526040805192909401829003822060078a01554260038a01819055600154603c020160048a015560058901805461ffff19169055600060068a018190558a8352600160a060020a038f16838301529382018d90526080606083018181528d51918401919091528c517f06d6b095e85f5218421975622a7aee84a98b32aa7d174b90088357014003b43399508b98508f97508e96508d95939450909260a0850192860191908190849084905b838110156118f25781810151838201526020016118da565b50505050905090810190601f16801561191f5780820380516001836020036101000a031916815260200191505b509550505050505060405180910390a16001820160035550949350505050565b6110e081565b60008060028681548110151561195757fe5b90600052602060002090600a020190508484846040518084600160a060020a0316600160a060020a03166c0100000000000000000000000002815260140183815260200182805190602001908083835b602083106119c65780518252601f1990920191602091820191016119a7565b5181516000196020949094036101000a9390930192831692191691909117905260405192018290039091206007870154149650505050505050949350505050565b60085481565b81810182811015611a1a57fe5b92915050565b600082821115611a2c57fe5b50900390565b815481835581811115611a5657600083815260209020611a56918101908301611b01565b505050565b815481835581811115611a5657600a0281600a028360005260206000209182019101611a569190611b36565b828054600181600116156101000203166002900490600052602060002090601f016020900481019282601f10611ac857805160ff1916838001178555611af5565b82800160010185558215611af5579182015b82811115611af5578251825591602001919060010190611ada565b50611216929150611bb7565b611b3391905b8082111561121657805474ffffffffffffffffffffffffffffffffffffffffff19168155600101611b07565b90565b611b3391905b8082111561121657805473ffffffffffffffffffffffffffffffffffffffff19168155600060018201819055611b756002830182611bd1565b6000600383018190556004830181905560058301805461ffff191690556006830181905560078301819055611bae906008840190611c18565b50600a01611b3c565b611b3391905b808211156112165760008155600101611bbd565b50805460018160011615610100020316600290046000825580601f10611bf75750611c15565b601f016020900490600052602060002090810190611c159190611bb7565b50565b5080546000825590600052602060002090810190611c159190611b015600a165627a7a7230582085ba647e52374f8a70bddd9bd32882e824f98e5e74f80d18430b9d59acfe6b1a0029608060405234801561001057600080fd5b5060405160208061028c833981016040525160008054600160a060020a03338116600160a060020a0319928316179092556001805492909316911617905561022f8061005d6000396000f3006080604052600436106100565763ffffffff7c01000000000000000000000000000000000000000000000000000000006000350416638da5cb5b811461005b578063a9059cbb14610099578063fc0c546a146100de575b600080fd5b34801561006757600080fd5b506100706100f3565b6040805173ffffffffffffffffffffffffffffffffffffffff9092168252519081900360200190f35b3480156100a557600080fd5b506100ca73ffffffffffffffffffffffffffffffffffffffff6004351660243561010f565b604080519115158252519081900360200190f35b3480156100ea57600080fd5b506100706101e7565b60005473ffffffffffffffffffffffffffffffffffffffff1681565b600080543373ffffffffffffffffffffffffffffffffffffffff90811691161461013857600080fd5b600154604080517fa9059cbb00000000000000000000000000000000000000000000000000000000815273ffffffffffffffffffffffffffffffffffffffff8681166004830152602482018690529151919092169163a9059cbb9160448083019260209291908290030181600087803b1580156101b457600080fd5b505af11580156101c8573d6000803e3d6000fd5b505050506040513d60208110156101de57600080fd5b50519392505050565b60015473ffffffffffffffffffffffffffffffffffffffff16815600a165627a7a723058209f496b1bf61146c0b3cddbcfae0ee75f1ff48a8e66b4bbd79c35fa14237a4c100029",
  "source": "/*\n\n  << Project Wyvern DAO >>\n\n*/\n\npragma solidity 0.4.23;\n\nimport \"./dao/DelegatedShareholderAssociation.sol\";\n\n/**\n * @title WyvernDAO\n * @author Project Wyvern Developers\n */\ncontract WyvernDAO is DelegatedShareholderAssociation {\n\n    string public constant name = \"Project Wyvern DAO\";\n\n    uint public constant TOKEN_DECIMALS                     = 18;\n    uint public constant REQUIRED_SHARES_TO_BE_BOARD_MEMBER = 2000 * (10 ** TOKEN_DECIMALS); // set to ~ 0.1% of supply\n    uint public constant MINIMUM_QUORUM                     = 200000 * (10 ** TOKEN_DECIMALS); // set to 10% of supply\n    uint public constant DEBATE_PERIOD_MINUTES              = 60 * 24 * 3; // set to 3 days\n\n    constructor (ERC20 sharesAddress) public {\n        sharesTokenAddress = sharesAddress;\n        requiredSharesToBeBoardMember = REQUIRED_SHARES_TO_BE_BOARD_MEMBER;\n        minimumQuorum = MINIMUM_QUORUM;\n        debatingPeriodInMinutes = DEBATE_PERIOD_MINUTES;\n        tokenLocker = new TokenLocker(sharesAddress);\n    }\n\n}\n",
  "sourcePath": "/Users/keyang/Workspace/private-chain/truffle-learn/wyvern-ethereum-demo/contracts/WyvernDAO.sol",
  "compiler": {
    "name": "solc",
    "version": "0.4.23+commit.124ca40d.Emscripten.clang"
  },
  "schemaVersion": "3.4.4",
  "updatedAt": "2022-05-26T03:00:50.523Z",
  "networkType": "ethereum",
  "devdoc": {
    "author": "Project Wyvern Developers",
    "methods": {
      "changeVotingRules(uint256,uint256,uint256)": {
        "params": {
          "minimumSharesToPassAVote": "proposal can vote only if the sum of shares held by all voters exceed this number",
          "minutesForDebate": "the minimum amount of delay between when a proposal is made and when it can be executed",
          "sharesToBeBoardMember": "the minimum number of shares required to create proposals"
        }
      },
      "checkProposalCode(uint256,address,uint256,bytes)": {
        "params": {
          "beneficiary": "who to send the ether to",
          "proposalNumber": "ID number of the proposal to query",
          "transactionBytecode": "bytecode of transaction",
          "weiAmount": "amount of ether to send"
        }
      },
      "clearDelegateAndUnlockTokens()": {
        "details": "Can only be called by a sending address currently delegating tokens, will transfer all locked tokens back to the sender",
        "return": "The number of tokens previously locked, now released"
      },
      "countVotes(uint256)": {
        "params": {
          "proposalNumber": "proposal number"
        },
        "return": "yea votes, nay votes, quorum (total votes)"
      },
      "executeProposal(uint256,bytes)": {
        "params": {
          "proposalNumber": "proposal number",
          "transactionBytecode": "optional: if the transaction contained a bytecode, you need to send it"
        }
      },
      "hasVoted(uint256,address)": {
        "params": {
          "proposalNumber": "proposal number",
          "shareholder": "address to query"
        },
        "return": "whether or not the specified address has cast a vote on the specified proposal"
      },
      "newProposal(address,uint256,bytes,bytes)": {
        "details": "Submit proposal for the DAO to execute a particular transaction. Submitter should check that the `beneficiary` account exists, unless the intent is to burn Ether.",
        "params": {
          "beneficiary": "who to send the ether to",
          "jobMetadataHash": "Hash of job metadata (IPFS)",
          "transactionBytecode": "bytecode of transaction",
          "weiAmount": "amount of ether to send, in wei"
        }
      },
      "receiveApproval(address,uint256,address,bytes)": {
        "details": "Receive tokens and generate a log event",
        "params": {
          "extraData": "Additional data to log",
          "from": "Address from which to transfer tokens",
          "token": "Address of token",
          "value": "Amount of tokens to transfer"
        }
      },
      "setDelegateAndLockTokens(uint256,address)": {
        "details": "An address holding tokens (shares) may only delegate some portion of their vote to one delegate at any one time",
        "params": {
          "delegate": "the address to which votes equal to the number of tokens locked will be delegated",
          "tokensToLock": "number of tokens to be locked (sending address must have at least this many tokens)"
        }
      },
      "vote(uint256,bool)": {
        "details": "Vote in favor or against an existing proposal. Voter should check that the proposal destination account exists, unless the intent is to burn Ether.",
        "params": {
          "proposalNumber": "number of proposal",
          "supportsProposal": "either in favor or against it"
        }
      }
    },
    "title": "WyvernDAO"
  },
  "userdoc": {
    "methods": {
      "changeVotingRules(uint256,uint256,uint256)": {
        "notice": "Change voting rules     * Make so that proposals need tobe discussed for at least `minutesForDebate/60` hours and all voters combined must own more than `minimumSharesToPassAVote` shares of token `sharesAddress` to be executed and a shareholder needs `sharesToBeBoardMember` shares to create a transaction proposal"
      },
      "checkProposalCode(uint256,address,uint256,bytes)": {
        "notice": "Check if a proposal code matches"
      },
      "clearDelegateAndUnlockTokens()": {
        "notice": "Undelegate all delegated tokens Clear the delegate address for all tokens delegated by the sending address, unlocking the locked tokens."
      },
      "countVotes(uint256)": {
        "notice": "Count the votes, including delegated votes, in support of, against, and in total for a particular proposal"
      },
      "executeProposal(uint256,bytes)": {
        "notice": "Finish vote     * Count the votes proposal #`proposalNumber` and execute it if approved"
      },
      "hasVoted(uint256,address)": {
        "notice": "Return whether a particular shareholder has voted on a particular proposal (convenience function)"
      },
      "newProposal(address,uint256,bytes,bytes)": {
        "notice": "Add Proposal     * Propose to send `weiAmount / 1e18` ether to `beneficiary` for `jobMetadataHash`. `transactionBytecode ? Contains : Does not contain` code."
      },
      "setDelegateAndLockTokens(uint256,address)": {
        "notice": "Delegate an amount of tokens Set the delegate address for a specified number of tokens belonging to the sending address, locking the tokens."
      },
      "vote(uint256,bool)": {
        "notice": "Log a vote for a proposal     * Vote `supportsProposal? in support of : against` proposal #`proposalNumber`"
      }
    }
  }
}